{
  "transactions": [
    {
      "hash": "0x7a41a5aed80a9c504cfb97412d65c6c989a34e5f517a1b059a55f06d11b134c7",
      "transactionType": "CALL",
      "contractName": "MockUSDC",
      "contractAddress": "0xdcf9936b330d6957cad463f850d1f2b6f1eabc3a",
      "function": "mintHuman(address,uint256)",
      "arguments": [
        "0xD1E84c88734013613230678B8E000dE53e4957dC",
        "1000"
      ],
      "transaction": {
        "from": "0xca60c8ef6934f8a97c6a503c4e3a46e87f5b08bd",
        "to": "0xdcf9936b330d6957cad463f850d1f2b6f1eabc3a",
        "gas": "0xc48d",
        "value": "0x0",
        "input": "0xf5617031000000000000000000000000d1e84c88734013613230678b8e000de53e4957dc00000000000000000000000000000000000000000000000000000000000003e8",
        "nonce": "0x3f",
        "chainId": "0x14a34"
      },
      "additionalContracts": [],
      "isFixedGasLimit": false
    },
    {
      "hash": "0x95cef2098b8989929b7b294cb0ac0d39f80dcb4d4e8fd4b542dc9b1905e8cb0f",
      "transactionType": "CALL",
      "contractName": "MockUSDC",
      "contractAddress": "0xdcf9936b330d6957cad463f850d1f2b6f1eabc3a",
      "function": "mintHuman(address,uint256)",
      "arguments": [
        "0xBaf9d5E05d82bEA9B971B54AD148904ae25876b2",
        "500"
      ],
      "transaction": {
        "from": "0xca60c8ef6934f8a97c6a503c4e3a46e87f5b08bd",
        "to": "0xdcf9936b330d6957cad463f850d1f2b6f1eabc3a",
        "gas": "0xd030",
        "value": "0x0",
        "input": "0xf5617031000000000000000000000000baf9d5e05d82bea9b971b54ad148904ae25876b200000000000000000000000000000000000000000000000000000000000001f4",
        "nonce": "0x40",
        "chainId": "0x14a34"
      },
      "additionalContracts": [],
      "isFixedGasLimit": false
    },
    {
      "hash": "0x3a27e80f1595c7269703b11db914adef1a70d47e3bfa2909c46c9976fc0a332d",
      "transactionType": "CALL",
      "contractName": "MockUSDC",
      "contractAddress": "0xdcf9936b330d6957cad463f850d1f2b6f1eabc3a",
      "function": "mintHuman(address,uint256)",
      "arguments": [
        "0x37D57004FdeBd029d9fcB1Cc88e275fEafA89353",
        "2000"
      ],
      "transaction": {
        "from": "0xca60c8ef6934f8a97c6a503c4e3a46e87f5b08bd",
        "to": "0xdcf9936b330d6957cad463f850d1f2b6f1eabc3a",
        "gas": "0xd030",
        "value": "0x0",
        "input": "0xf561703100000000000000000000000037d57004fdebd029d9fcb1cc88e275feafa8935300000000000000000000000000000000000000000000000000000000000007d0",
        "nonce": "0x41",
        "chainId": "0x14a34"
      },
      "additionalContracts": [],
      "isFixedGasLimit": false
    },
    {
      "hash": "0xf54f8887dfcd6e50b461aa51ce885481127b7635f8d435e65792f33c957ffc1f",
      "transactionType": "CALL",
      "contractName": "MockUSDC",
      "contractAddress": "0xdcf9936b330d6957cad463f850d1f2b6f1eabc3a",
      "function": "mintHuman(address,uint256)",
      "arguments": [
        "0x5159345B9944Ab14D05c18853923070D3EBF60ad",
        "500"
      ],
      "transaction": {
        "from": "0xca60c8ef6934f8a97c6a503c4e3a46e87f5b08bd",
        "to": "0xdcf9936b330d6957cad463f850d1f2b6f1eabc3a",
        "gas": "0xd030",
        "value": "0x0",
        "input": "0xf56170310000000000000000000000005159345b9944ab14d05c18853923070d3ebf60ad00000000000000000000000000000000000000000000000000000000000001f4",
        "nonce": "0x42",
        "chainId": "0x14a34"
      },
      "additionalContracts": [],
      "isFixedGasLimit": false
    },
    {
      "hash": "0x783b7e2a846d0e81596386e7bc6a8a03667cb0e08306afac38571ac61413846e",
      "transactionType": "CALL",
      "contractName": "MockUSDC",
      "contractAddress": "0xdcf9936b330d6957cad463f850d1f2b6f1eabc3a",
      "function": "mintHuman(address,uint256)",
      "arguments": [
        "0x4EED792404bbC7bC98648EbE653E38995B8e3DfB",
        "1000"
      ],
      "transaction": {
        "from": "0xca60c8ef6934f8a97c6a503c4e3a46e87f5b08bd",
        "to": "0xdcf9936b330d6957cad463f850d1f2b6f1eabc3a",
        "gas": "0xd030",
        "value": "0x0",
        "input": "0xf56170310000000000000000000000004eed792404bbc7bc98648ebe653e38995b8e3dfb00000000000000000000000000000000000000000000000000000000000003e8",
        "nonce": "0x43",
        "chainId": "0x14a34"
      },
      "additionalContracts": [],
      "isFixedGasLimit": false
    }
  ],
  "receipts": [
    {
      "status": "0x1",
      "cumulativeGasUsed": "0x15b486f3",
      "logs": [
        {
          "address": "0xdcf9936b330d6957cad463f850d1f2b6f1eabc3a",
          "topics": [
            "0xddf252ad1be2c89b69c2b068fc378daa952ba7f163c4a11628f55a4df523b3ef",
            "0x0000000000000000000000000000000000000000000000000000000000000000",
            "0x000000000000000000000000baf9d5e05d82bea9b971b54ad148904ae25876b2"
          ],
          "data": "0x000000000000000000000000000000000000000000000000000000001dcd6500",
          "blockHash": "0xc823fe20dad45e4035fb46450e864ba275a204f3c6eec5fa8d8fb7ff7ca4aada",
          "blockNumber": "0x266ea97",
          "blockTimestamp": "0x69e1340e",
          "transactionHash": "0x3a27e80f1595c7269703b11db914adef1a70d47e3bfa2909c46c9976fc0a332d",
          "transactionIndex": "0x181",
          "logIndex": "0x1570",
          "removed": false
        }
      ],
      "logsBloom": "0x00000000000000000000000400000000000000000000000000000000000001000000000000000000000000000000000000000000000000000000000000000000000000000000000000000008000000000000000000000000000000000000000000000000020000000000000000000800000000000000000000000010000000000000000000000000000000000000000000000000000000000000000000000000000000000000000000000000000000000000800000000000000000000000000000000002000000000000000000000000000000000000000000000000000020000000000000000000010080000000000004000000000000000000000000000000",
      "type": "0x2",
      "transactionHash": "0x3a27e80f1595c7269703b11db914adef1a70d47e3bfa2909c46c9976fc0a332d",
      "transactionIndex": "0x181",
      "blockHash": "0xc823fe20dad45e4035fb46450e864ba275a204f3c6eec5fa8d8fb7ff7ca4aada",
      "blockNumber": "0x266ea97",
      "gasUsed": "0x8e5a",
      "effectiveGasPrice": "0x50e6e6",
      "blobGasUsed": "0x39d0",
      "from": "0xca60c8ef6934f8a97c6a503c4e3a46e87f5b08bd",
      "to": "0xdcf9936b330d6957cad463f850d1f2b6f1eabc3a",
      "contractAddress": null,
      "daFootprintGasScalar": "0x94",
      "l1BaseFeeScalar": "0x44d",
      "l1BlobBaseFee": "0xb5bd2",
      "l1BlobBaseFeeScalar": "0xa118b",
      "l1Fee": "0x3a54b02",
      "l1GasPrice": "0x6854c9",
      "l1GasUsed": "0x640"
    },
    {
      "status": "0x1",
      "cumulativeGasUsed": "0x15b5154d",
      "logs": [
        {
          "address": "0xdcf9936b330d6957cad463f850d1f2b6f1eabc3a",
          "topics": [
            "0xddf252ad1be2c89b69c2b068fc378daa952ba7f163c4a11628f55a4df523b3ef",
            "0x0000000000000000000000000000000000000000000000000000000000000000",
            "0x00000000000000000000000037d57004fdebd029d9fcb1cc88e275feafa89353"
          ],
          "data": "0x0000000000000000000000000000000000000000000000000000000077359400",
          "blockHash": "0xc823fe20dad45e4035fb46450e864ba275a204f3c6eec5fa8d8fb7ff7ca4aada",
          "blockNumber": "0x266ea97",
          "blockTimestamp": "0x69e1340e",
          "transactionHash": "0x7a41a5aed80a9c504cfb97412d65c6c989a34e5f517a1b059a55f06d11b134c7",
          "transactionIndex": "0x182",
          "logIndex": "0x1571",
          "removed": false
        }
      ],
      "logsBloom": "0x00000000000000000000000400000000000000000000000000000000000000000000000000000000000000000000000000000000000000000000000000000000000000000000000000000008000000000000000000000000000000000000000000000000020000000000000000000800000000000000000000000011000000000000000000000000000000000000000000000000000000000000000000004000000000000000000000000000000000000000800000000000000000000000000000000002000000000000000000000000000000000000000000000000000020000000000000000000010000000000000080000000000000000000000000000000",
      "type": "0x2",
      "transactionHash": "0x7a41a5aed80a9c504cfb97412d65c6c989a34e5f517a1b059a55f06d11b134c7",
      "transactionIndex": "0x182",
      "blockHash": "0xc823fe20dad45e4035fb46450e864ba275a204f3c6eec5fa8d8fb7ff7ca4aada",
      "blockNumber": "0x266ea97",
      "gasUsed": "0x8e5a",
      "effectiveGasPrice": "0x50e6e6",
      "blobGasUsed": "0x39d0",
      "from": "0xca60c8ef6934f8a97c6a503c4e3a46e87f5b08bd",
      "to": "0xdcf9936b330d6957cad463f850d1f2b6f1eabc3a",
      "contractAddress": null,
      "daFootprintGasScalar": "0x94",
      "l1BaseFeeScalar": "0x44d",
      "l1BlobBaseFee": "0xb5bd2",
      "l1BlobBaseFeeScalar": "0xa118b",
      "l1Fee": "0x3a54b02",
      "l1GasPrice": "0x6854c9",
      "l1GasUsed": "0x640"
    },
    {
      "status": "0x1",
      "cumulativeGasUsed": "0x15b5a3a7",
      "logs": [
        {
          "address": "0xdcf9936b330d6957cad463f850d1f2b6f1eabc3a",
          "topics": [
            "0xddf252ad1be2c89b69c2b068fc378daa952ba7f163c4a11628f55a4df523b3ef",
            "0x0000000000000000000000000000000000000000000000000000000000000000",
            "0x0000000000000000000000005159345b9944ab14d05c18853923070d3ebf60ad"
          ],
          "data": "0x000000000000000000000000000000000000000000000000000000001dcd6500",
          "blockHash": "0xc823fe20dad45e4035fb46450e864ba275a204f3c6eec5fa8d8fb7ff7ca4aada",
          "blockNumber": "0x266ea97",
          "blockTimestamp": "0x69e1340e",
          "transactionHash": "0x783b7e2a846d0e81596386e7bc6a8a03667cb0e08306afac38571ac61413846e",
          "transactionIndex": "0x183",
          "logIndex": "0x1572",
          "removed": false
        }
      ],
      "logsBloom": "0x00000000000000000000000400000000000000000000000000000000000000000000000000000000000000000000000000000000000000000000000000000000000000000000000000000008000000000000000000000000000000000000000000000000020000000000000000000800000040000000000000000010000000000000000002000000000000000000000000000000000000000000000000000000000000000000000000000000000000000000800000000000000000000000000000000002000000000000000000000000000000000000000000000000000020008000000000000000010000000000000000000000000000000000000000000000",
      "type": "0x2",
      "transactionHash": "0x783b7e2a846d0e81596386e7bc6a8a03667cb0e08306afac38571ac61413846e",
      "transactionIndex": "0x183",
      "blockHash": "0xc823fe20dad45e4035fb46450e864ba275a204f3c6eec5fa8d8fb7ff7ca4aada",
      "blockNumber": "0x266ea97",
      "gasUsed": "0x8e5a",
      "effectiveGasPrice": "0x50e6e6",
      "blobGasUsed": "0x39d0",
      "from": "0xca60c8ef6934f8a97c6a503c4e3a46e87f5b08bd",
      "to": "0xdcf9936b330d6957cad463f850d1f2b6f1eabc3a",
      "contractAddress": null,
      "daFootprintGasScalar": "0x94",
      "l1BaseFeeScalar": "0x44d",
      "l1BlobBaseFee": "0xb5bd2",
      "l1BlobBaseFeeScalar": "0xa118b",
      "l1Fee": "0x3a54b02",
      "l1GasPrice": "0x6854c9",
      "l1GasUsed": "0x640"
    },
    {
      "status": "0x1",
      "cumulativeGasUsed": "0x15b63201",
      "logs": [
        {
          "address": "0xdcf9936b330d6957cad463f850d1f2b6f1eabc3a",
          "topics": [
            "0xddf252ad1be2c89b69c2b068fc378daa952ba7f163c4a11628f55a4df523b3ef",
            "0x0000000000000000000000000000000000000000000000000000000000000000",
            "0x0000000000000000000000004eed792404bbc7bc98648ebe653e38995b8e3dfb"
          ],
          "data": "0x000000000000000000000000000000000000000000000000000000003b9aca00",
          "blockHash": "0xc823fe20dad45e4035fb46450e864ba275a204f3c6eec5fa8d8fb7ff7ca4aada",
          "blockNumber": "0x266ea97",
          "blockTimestamp": "0x69e1340e",
          "transactionHash": "0x95cef2098b8989929b7b294cb0ac0d39f80dcb4d4e8fd4b542dc9b1905e8cb0f",
          "transactionIndex": "0x184",
          "logIndex": "0x1573",
          "removed": false
        }
      ],
      "logsBloom": "0x00000000000000000000000400000000000000000000000000000000000000000000000000000000000000000000000000000000000000000000000000000000000000000000000000000008000000000000000000000000000000000000000000000000020000000000000000000800000000000000000000000010000000000000000000000000000000000000000000040000000000000000000000000000000000000000000000000000000000000000800000000000000000000000000000000002000000000000000000000020000000000000000000000000000020000000000000000000010000000000000080000000000000000000000000000000",
      "type": "0x2",
      "transactionHash": "0x95cef2098b8989929b7b294cb0ac0d39f80dcb4d4e8fd4b542dc9b1905e8cb0f",
      "transactionIndex": "0x184",
      "blockHash": "0xc823fe20dad45e4035fb46450e864ba275a204f3c6eec5fa8d8fb7ff7ca4aada",
      "blockNumber": "0x266ea97",
      "gasUsed": "0x8e5a",
      "effectiveGasPrice": "0x50e6e6",
      "blobGasUsed": "0x39d0",
      "from": "0xca60c8ef6934f8a97c6a503c4e3a46e87f5b08bd",
      "to": "0xdcf9936b330d6957cad463f850d1f2b6f1eabc3a",
      "contractAddress": null,
      "daFootprintGasScalar": "0x94",
      "l1BaseFeeScalar": "0x44d",
      "l1BlobBaseFee": "0xb5bd2",
      "l1BlobBaseFeeScalar": "0xa118b",
      "l1Fee": "0x3a54b02",
      "l1GasPrice": "0x6854c9",
      "l1GasUsed": "0x640"
    }
  ],
  "libraries": [],
  "pending": [],
  "returns": {},
  "timestamp": 1776372891257,
  "chain": 84532,
  "commit": "6f35caa"
}