{
  "transactions": [
    {
      "hash": "0x7a41a5aed80a9c504cfb97412d65c6c989a34e5f517a1b059a55f06d11b134c7",
      "transactionType": "CALL",
      "contractName": "MockUSDC",
      "contractAddress": "0xdcf9936b330d6957cad463f850d1f2b6f1eabc3a",
      "function": "mintHuman(address,uint256)",
      "arguments": [
        "0xD1E84c88734013613230678B8E000dE53e4957dC",
        "1000"
      ],
      "transaction": {
        "from": "0xca60c8ef6934f8a97c6a503c4e3a46e87f5b08bd",
        "to": "0xdcf9936b330d6957cad463f850d1f2b6f1eabc3a",
        "gas": "0xc48d",
        "value": "0x0",
        "input": "0xf5617031000000000000000000000000d1e84c88734013613230678b8e000de53e4957dc00000000000000000000000000000000000000000000000000000000000003e8",
        "nonce": "0x3f",
        "chainId": "0x14a34"
      },
      "additionalContracts": [],
      "isFixedGasLimit": false
    },
    {
      "hash": "0x95cef2098b8989929b7b294cb0ac0d39f80dcb4d4e8fd4b542dc9b1905e8cb0f",
      "transactionType": "CALL",
      "contractName": "MockUSDC",
      "contractAddress": "0xdcf9936b330d6957cad463f850d1f2b6f1eabc3a",
      "function": "mintHuman(address,uint256)",
      "arguments": [
        "0xBaf9d5E05d82bEA9B971B54AD148904ae25876b2",
        "500"
      ],
      "transaction": {
        "from": "0xca60c8ef6934f8a97c6a503c4e3a46e87f5b08bd",
        "to": "0xdcf9936b330d6957cad463f850d1f2b6f1eabc3a",
        "gas": "0xd030",
        "value": "0x0",
        "input": "0xf5617031000000000000000000000000baf9d5e05d82bea9b971b54ad148904ae25876b200000000000000000000000000000000000000000000000000000000000001f4",
        "nonce": "0x40",
        "chainId": "0x14a34"
      },
      "additionalContracts": [],
      "isFixedGasLimit": false
    },
    {
      "hash": "0x3a27e80f1595c7269703b11db914adef1a70d47e3bfa2909c46c9976fc0a332d",
      "transactionType": "CALL",
      "contractName": "MockUSDC",
      "contractAddress": "0xdcf9936b330d6957cad463f850d1f2b6f1eabc3a",
      "function": "mintHuman(address,uint256)",
      "arguments": [
        "0x37D57004FdeBd029d9fcB1Cc88e275fEafA89353",
        "2000"
      ],
      "transaction": {
        "from": "0xca60c8ef6934f8a97c6a503c4e3a46e87f5b08bd",
        "to": "0xdcf9936b330d6957cad463f850d1f2b6f1eabc3a",
        "gas": "0xd030",
        "value": "0x0",
        "input": "0xf561703100000000000000000000000037d57004fdebd029d9fcb1cc88e275feafa8935300000000000000000000000000000000000000000000000000000000000007d0",
        "nonce": "0x41",
        "chainId": "0x14a34"
      },
      "additionalContracts": [],
      "isFixedGasLimit": false
    },
    {
      "hash": "0xf54f8887dfcd6e50b461aa51ce885481127b7635f8d435e65792f33c957ffc1f",
      "transactionType": "CALL",
      "contractName": "MockUSDC",
      "contractAddress": "0xdcf9936b330d6957cad463f850d1f2b6f1eabc3a",
      "function": "mintHuman(address,uint256)",
      "arguments": [
        "0x5159345B9944Ab14D05c18853923070D3EBF60ad",
        "500"
      ],
      "transaction": {
        "from": "0xca60c8ef6934f8a97c6a503c4e3a46e87f5b08bd",
        "to": "0xdcf9936b330d6957cad463f850d1f2b6f1eabc3a",
        "gas": "0xd030",
        "value": "0x0",
        "input": "0xf56170310000000000000000000000005159345b9944ab14d05c18853923070d3ebf60ad00000000000000000000000000000000000000000000000000000000000001f4",
        "nonce": "0x42",
        "chainId": "0x14a34"
      },
      "additionalContracts": [],
      "isFixedGasLimit": false
    },
    {
      "hash": "0x783b7e2a846d0e81596386e7bc6a8a03667cb0e08306afac38571ac61413846e",
      "transactionType": "CALL",
      "contractName": "MockUSDC",
      "contractAddress": "0xdcf9936b330d6957cad463f850d1f2b6f1eabc3a",
      "function": "mintHuman(address,uint256)",
      "arguments": [
        "0x4EED792404bbC7bC98648EbE653E38995B8e3DfB",
        "1000"
      ],
      "transaction": {
        "from": "0xca60c8ef6934f8a97c6a503c4e3a46e87f5b08bd",
        "to": "0xdcf9936b330d6957cad463f850d1f2b6f1eabc3a",
        "gas": "0xd030",
        "value": "0x0",
        "input": "0xf56170310000000000000000000000004eed792404bbc7bc98648ebe653e38995b8e3dfb00000000000000000000000000000000000000000000000000000000000003e8",
        "nonce": "0x43",
        "chainId": "0x14a34"
      },
      "additionalContracts": [],
      "isFixedGasLimit": false
    }
  ],
  "receipts": [],
  "libraries": [],
  "pending": [
    "0x7a41a5aed80a9c504cfb97412d65c6c989a34e5f517a1b059a55f06d11b134c7",
    "0x95cef2098b8989929b7b294cb0ac0d39f80dcb4d4e8fd4b542dc9b1905e8cb0f",
    "0x3a27e80f1595c7269703b11db914adef1a70d47e3bfa2909c46c9976fc0a332d",
    "0xf54f8887dfcd6e50b461aa51ce885481127b7635f8d435e65792f33c957ffc1f",
    "0x783b7e2a846d0e81596386e7bc6a8a03667cb0e08306afac38571ac61413846e"
  ],
  "returns": {},
  "timestamp": 1776366090447,
  "chain": 84532,
  "commit": "6f35caa"
}