{
  "transactions": [
    {
      "hash": "0x3ac392aca4d78b02b6b9e84509954d9442c990c52875d55de680814f7c7eddd4",
      "transactionType": "CREATE",
      "contractName": "TestToken",
      "contractAddress": "0xe93695ae429a2c156f216bc615e9dd8d1a9794de",
      "function": null,
      "arguments": [
        "Test Wrapped Ether",
        "tWETH",
        "0xCa60c8eF6934f8a97c6a503C4e3a46e87F5b08bD"
      ],
      "transaction": {
        "from": "0xca60c8ef6934f8a97c6a503c4e3a46e87f5b08bd",
        "gas": "0xda071",
        "value": "0x0",
        "input": "0x6080604052346200037a5762000df6803803806200001d816200037e565b92833981016060828203126200037a5781516001600160401b0391908281116200037a57816200004f918501620003a4565b602091828501518481116200037a576040916200006e918701620003a4565b9401516001600160a01b039485821694918590036200037a57825182811162000285576003918254916001958684811c941680156200036f575b888510146200035b578190601f9485811162000308575b508890858311600114620002a5575f9262000299575b50505f1982861b1c191690861b1783555b8051938411620002855760049586548681811c911680156200027a575b8282101462000267578381116200021f575b5080928511600114620001b557509383949184925f95620001a9575b50501b925f19911b1c19161781555b8115620001925750600580546001600160a01b03198116831790915560405192167f8be0079c531659141344cd1fd0a4f28419497f9722a3daafe3b4186f6b6457e05f80a36109e19081620004158239f35b6024905f60405191631e4fbdf760e01b8352820152fd5b015193505f8062000131565b92919084601f198116885f52855f20955f905b89838310620002045750505010620001ea575b50505050811b01815562000140565b01519060f8845f19921b161c191690555f808080620001db565b858701518955909701969485019488935090810190620001c8565b875f52815f208480880160051c8201928489106200025d575b0160051c019087905b8281106200025157505062000115565b5f815501879062000241565b9250819262000238565b602288634e487b7160e01b5f525260245ffd5b90607f169062000103565b634e487b7160e01b5f52604160045260245ffd5b015190505f80620000d5565b90889350601f19831691875f528a5f20925f5b8c828210620002f15750508411620002d9575b505050811b018355620000e6565b01515f1983881b60f8161c191690555f8080620002cb565b8385015186558c97909501949384019301620002b8565b909150855f52885f208580850160051c8201928b861062000351575b918a91869594930160051c01915b82811062000342575050620000bf565b5f81558594508a910162000332565b9250819262000324565b634e487b7160e01b5f52602260045260245ffd5b93607f1693620000a8565b5f80fd5b6040519190601f01601f191682016001600160401b038111838210176200028557604052565b919080601f840112156200037a5782516001600160401b0381116200028557602090620003da601f8201601f191683016200037e565b928184528282870101116200037a575f5b818110620004005750825f9394955001015290565b8581018301518482018401528201620003eb56fe6080604081815260049182361015610015575f80fd5b5f3560e01c90816306fdde03146106ac57508063095ea7b31461060457806318160ddd146105e657806323b872dd146104f4578063313ce567146104d957806340c10f19146104ad57806370a0823114610477578063715018a61461041c5780637b19a744146103735780638da5cb5b1461034b57806395d89b411461022c578063a9059cbb146101fc578063dd62ed3e146101b3578063f2fde38b146101245763f5617031146100c4575f80fd5b3461012057366003190112610120576100db6107cd565b602435906100e761090b565b670de0b6b3a76400009182810292818404149015171561010d5761010b9250610937565b005b601183634e487b7160e01b5f525260245ffd5b5f80fd5b5090346101205760203660031901126101205761013f6107cd565b9061014861090b565b6001600160a01b0391821692831561019d575050600554826bffffffffffffffffffffffff60a01b821617600555167f8be0079c531659141344cd1fd0a4f28419497f9722a3daafe3b4186f6b6457e05f80a3005b905f6024925191631e4fbdf760e01b8352820152fd5b50346101205780600319360112610120576020906101cf6107cd565b6101d76107e3565b9060018060a01b038091165f5260018452825f2091165f528252805f20549051908152f35b503461012057806003193601126101205760209061022561021b6107cd565b6024359033610831565b5160018152f35b5034610120575f366003190112610120578051905f835460018160011c9060018316928315610341575b602093848410811461032e5783885290811561031257506001146102be575b505050829003601f01601f191682019267ffffffffffffffff8411838510176102ab57508291826102a7925282610786565b0390f35b604190634e487b7160e01b5f525260245ffd5b5f878152929350837f8a35acfbc15ff81a39ae7d344fd709f28e8600b4aa8c65c6b64bfe7fe36bd19b5b8385106102fe57505050508301015f8080610275565b8054888601830152930192849082016102e8565b60ff1916878501525050151560051b84010190505f8080610275565b602289634e487b7160e01b5f525260245ffd5b91607f1691610256565b5034610120575f3660031901126101205760055490516001600160a01b039091168152602090f35b50346101205736600319011261012057803567ffffffffffffffff91828211610120573660238301121561012057810135918211610120576024810190602436918460051b01011161012057602435906103cb61090b565b5f5b8381106103d657005b6001906001600160a01b036103f46103ef8388876107f9565b61081d565b16610400575b016103cd565b610417846104126103ef8489886107f9565b610937565b6103fa565b34610120575f3660031901126101205761043461090b565b600580546001600160a01b031981169091555f906001600160a01b03167f8be0079c531659141344cd1fd0a4f28419497f9722a3daafe3b4186f6b6457e08280a3005b5034610120576020366003190112610120576020906001600160a01b0361049c6107cd565b165f525f8252805f20549051908152f35b5034610120573660031901126101205761010b6104c86107cd565b6104d061090b565b60243590610937565b5034610120575f366003190112610120576020905160128152f35b5090346101205760603660031901126101205761050f6107cd565b6105176107e3565b906044359260018060a01b038216805f526001602052855f20335f52602052855f2054915f198310610552575b602087610225888888610831565b8583106105ba5781156105a457331561058e57505f90815260016020908152868220338352815290869020918590039091558290610225610544565b6024905f885191634a1406b160e11b8352820152fd5b6024905f88519163e602df0560e01b8352820152fd5b8651637dc7a0d960e11b8152339181019182526020820193909352604081018690528291506060010390fd5b5034610120575f366003190112610120576020906002549051908152f35b503461012057806003193601126101205761061d6107cd565b602435903315610696576001600160a01b03169081156106805760209350335f5260018452825f20825f52845280835f205582519081527f8c5be1e5ebec7d5bd14f71427d1e84f3dd0314c0f7b2291e5b200ac8c7c3b925843392a35160018152f35b8251634a1406b160e11b81525f81860152602490fd5b825163e602df0560e01b81525f81860152602490fd5b91905034610120575f366003190112610120575f60035460018160011c906001831692831561077c575b602093848410811461032e57838852908115610312575060011461072657505050829003601f01601f191682019267ffffffffffffffff8411838510176102ab57508291826102a7925282610786565b60035f908152929350837fc2575a0e9e593c00f959f8c92f12db2869c3395a3b0502d05e2516446f71f85b5b83851061076857505050508301015f8080610275565b805488860183015293019284908201610752565b91607f16916106d6565b602080825282518183018190529093925f5b8281106107b957505060409293505f838284010152601f8019910116010190565b818101860151848201604001528501610798565b600435906001600160a01b038216820361012057565b602435906001600160a01b038216820361012057565b91908110156108095760051b0190565b634e487b7160e01b5f52603260045260245ffd5b356001600160a01b03811681036101205790565b916001600160a01b038084169283156108f357169283156108db57825f525f60205260405f2054908282106108a95750817fddf252ad1be2c89b69c2b068fc378daa952ba7f163c4a11628f55a4df523b3ef92602092855f525f84520360405f2055845f5260405f20818154019055604051908152a3565b60405163391434e360e21b81526001600160a01b03919091166004820152602481019190915260448101829052606490fd5b60405163ec442f0560e01b81525f6004820152602490fd5b604051634b637e8f60e11b81525f6004820152602490fd5b6005546001600160a01b0316330361091f57565b60405163118cdaa760e01b8152336004820152602490fd5b6001600160a01b03169081156108db57600254908082018092116109975760207fddf252ad1be2c89b69c2b068fc378daa952ba7f163c4a11628f55a4df523b3ef915f9360025584845283825260408420818154019055604051908152a3565b634e487b7160e01b5f52601160045260245ffdfea26469706673582212206f0175a3013a8ac30cfacf8aec529aeae831ac5d49a878666e87f6c5551aacfe64736f6c63430008180033000000000000000000000000000000000000000000000000000000000000006000000000000000000000000000000000000000000000000000000000000000a0000000000000000000000000ca60c8ef6934f8a97c6a503c4e3a46e87f5b08bd0000000000000000000000000000000000000000000000000000000000000012546573742057726170706564204574686572000000000000000000000000000000000000000000000000000000000000000000000000000000000000000000057457455448000000000000000000000000000000000000000000000000000000",
        "nonce": "0x4e",
        "chainId": "0x14a34"
      },
      "additionalContracts": [],
      "isFixedGasLimit": false
    },
    {
      "hash": "0x78e79a01af4c0e6dc5ff3facbb1dda637f7884b84c1ce4d064ea12aab07a2033",
      "transactionType": "CREATE",
      "contractName": "TestToken",
      "contractAddress": "0xcd1ca9d5612b0eaefa6388129366226d9715161a",
      "function": null,
      "arguments": [
        "Test Wrapped Bitcoin",
        "tWBTC",
        "0xCa60c8eF6934f8a97c6a503C4e3a46e87F5b08bD"
      ],
      "transaction": {
        "from": "0xca60c8ef6934f8a97c6a503c4e3a46e87f5b08bd",
        "gas": "0xda090",
        "value": "0x0",
        "input": "0x6080604052346200037a5762000df6803803806200001d816200037e565b92833981016060828203126200037a5781516001600160401b0391908281116200037a57816200004f918501620003a4565b602091828501518481116200037a576040916200006e918701620003a4565b9401516001600160a01b039485821694918590036200037a57825182811162000285576003918254916001958684811c941680156200036f575b888510146200035b578190601f9485811162000308575b508890858311600114620002a5575f9262000299575b50505f1982861b1c191690861b1783555b8051938411620002855760049586548681811c911680156200027a575b8282101462000267578381116200021f575b5080928511600114620001b557509383949184925f95620001a9575b50501b925f19911b1c19161781555b8115620001925750600580546001600160a01b03198116831790915560405192167f8be0079c531659141344cd1fd0a4f28419497f9722a3daafe3b4186f6b6457e05f80a36109e19081620004158239f35b6024905f60405191631e4fbdf760e01b8352820152fd5b015193505f8062000131565b92919084601f198116885f52855f20955f905b89838310620002045750505010620001ea575b50505050811b01815562000140565b01519060f8845f19921b161c191690555f808080620001db565b858701518955909701969485019488935090810190620001c8565b875f52815f208480880160051c8201928489106200025d575b0160051c019087905b8281106200025157505062000115565b5f815501879062000241565b9250819262000238565b602288634e487b7160e01b5f525260245ffd5b90607f169062000103565b634e487b7160e01b5f52604160045260245ffd5b015190505f80620000d5565b90889350601f19831691875f528a5f20925f5b8c828210620002f15750508411620002d9575b505050811b018355620000e6565b01515f1983881b60f8161c191690555f8080620002cb565b8385015186558c97909501949384019301620002b8565b909150855f52885f208580850160051c8201928b861062000351575b918a91869594930160051c01915b82811062000342575050620000bf565b5f81558594508a910162000332565b9250819262000324565b634e487b7160e01b5f52602260045260245ffd5b93607f1693620000a8565b5f80fd5b6040519190601f01601f191682016001600160401b038111838210176200028557604052565b919080601f840112156200037a5782516001600160401b0381116200028557602090620003da601f8201601f191683016200037e565b928184528282870101116200037a575f5b818110620004005750825f9394955001015290565b8581018301518482018401528201620003eb56fe6080604081815260049182361015610015575f80fd5b5f3560e01c90816306fdde03146106ac57508063095ea7b31461060457806318160ddd146105e657806323b872dd146104f4578063313ce567146104d957806340c10f19146104ad57806370a0823114610477578063715018a61461041c5780637b19a744146103735780638da5cb5b1461034b57806395d89b411461022c578063a9059cbb146101fc578063dd62ed3e146101b3578063f2fde38b146101245763f5617031146100c4575f80fd5b3461012057366003190112610120576100db6107cd565b602435906100e761090b565b670de0b6b3a76400009182810292818404149015171561010d5761010b9250610937565b005b601183634e487b7160e01b5f525260245ffd5b5f80fd5b5090346101205760203660031901126101205761013f6107cd565b9061014861090b565b6001600160a01b0391821692831561019d575050600554826bffffffffffffffffffffffff60a01b821617600555167f8be0079c531659141344cd1fd0a4f28419497f9722a3daafe3b4186f6b6457e05f80a3005b905f6024925191631e4fbdf760e01b8352820152fd5b50346101205780600319360112610120576020906101cf6107cd565b6101d76107e3565b9060018060a01b038091165f5260018452825f2091165f528252805f20549051908152f35b503461012057806003193601126101205760209061022561021b6107cd565b6024359033610831565b5160018152f35b5034610120575f366003190112610120578051905f835460018160011c9060018316928315610341575b602093848410811461032e5783885290811561031257506001146102be575b505050829003601f01601f191682019267ffffffffffffffff8411838510176102ab57508291826102a7925282610786565b0390f35b604190634e487b7160e01b5f525260245ffd5b5f878152929350837f8a35acfbc15ff81a39ae7d344fd709f28e8600b4aa8c65c6b64bfe7fe36bd19b5b8385106102fe57505050508301015f8080610275565b8054888601830152930192849082016102e8565b60ff1916878501525050151560051b84010190505f8080610275565b602289634e487b7160e01b5f525260245ffd5b91607f1691610256565b5034610120575f3660031901126101205760055490516001600160a01b039091168152602090f35b50346101205736600319011261012057803567ffffffffffffffff91828211610120573660238301121561012057810135918211610120576024810190602436918460051b01011161012057602435906103cb61090b565b5f5b8381106103d657005b6001906001600160a01b036103f46103ef8388876107f9565b61081d565b16610400575b016103cd565b610417846104126103ef8489886107f9565b610937565b6103fa565b34610120575f3660031901126101205761043461090b565b600580546001600160a01b031981169091555f906001600160a01b03167f8be0079c531659141344cd1fd0a4f28419497f9722a3daafe3b4186f6b6457e08280a3005b5034610120576020366003190112610120576020906001600160a01b0361049c6107cd565b165f525f8252805f20549051908152f35b5034610120573660031901126101205761010b6104c86107cd565b6104d061090b565b60243590610937565b5034610120575f366003190112610120576020905160128152f35b5090346101205760603660031901126101205761050f6107cd565b6105176107e3565b906044359260018060a01b038216805f526001602052855f20335f52602052855f2054915f198310610552575b602087610225888888610831565b8583106105ba5781156105a457331561058e57505f90815260016020908152868220338352815290869020918590039091558290610225610544565b6024905f885191634a1406b160e11b8352820152fd5b6024905f88519163e602df0560e01b8352820152fd5b8651637dc7a0d960e11b8152339181019182526020820193909352604081018690528291506060010390fd5b5034610120575f366003190112610120576020906002549051908152f35b503461012057806003193601126101205761061d6107cd565b602435903315610696576001600160a01b03169081156106805760209350335f5260018452825f20825f52845280835f205582519081527f8c5be1e5ebec7d5bd14f71427d1e84f3dd0314c0f7b2291e5b200ac8c7c3b925843392a35160018152f35b8251634a1406b160e11b81525f81860152602490fd5b825163e602df0560e01b81525f81860152602490fd5b91905034610120575f366003190112610120575f60035460018160011c906001831692831561077c575b602093848410811461032e57838852908115610312575060011461072657505050829003601f01601f191682019267ffffffffffffffff8411838510176102ab57508291826102a7925282610786565b60035f908152929350837fc2575a0e9e593c00f959f8c92f12db2869c3395a3b0502d05e2516446f71f85b5b83851061076857505050508301015f8080610275565b805488860183015293019284908201610752565b91607f16916106d6565b602080825282518183018190529093925f5b8281106107b957505060409293505f838284010152601f8019910116010190565b818101860151848201604001528501610798565b600435906001600160a01b038216820361012057565b602435906001600160a01b038216820361012057565b91908110156108095760051b0190565b634e487b7160e01b5f52603260045260245ffd5b356001600160a01b03811681036101205790565b916001600160a01b038084169283156108f357169283156108db57825f525f60205260405f2054908282106108a95750817fddf252ad1be2c89b69c2b068fc378daa952ba7f163c4a11628f55a4df523b3ef92602092855f525f84520360405f2055845f5260405f20818154019055604051908152a3565b60405163391434e360e21b81526001600160a01b03919091166004820152602481019190915260448101829052606490fd5b60405163ec442f0560e01b81525f6004820152602490fd5b604051634b637e8f60e11b81525f6004820152602490fd5b6005546001600160a01b0316330361091f57565b60405163118cdaa760e01b8152336004820152602490fd5b6001600160a01b03169081156108db57600254908082018092116109975760207fddf252ad1be2c89b69c2b068fc378daa952ba7f163c4a11628f55a4df523b3ef915f9360025584845283825260408420818154019055604051908152a3565b634e487b7160e01b5f52601160045260245ffdfea26469706673582212206f0175a3013a8ac30cfacf8aec529aeae831ac5d49a878666e87f6c5551aacfe64736f6c63430008180033000000000000000000000000000000000000000000000000000000000000006000000000000000000000000000000000000000000000000000000000000000a0000000000000000000000000ca60c8ef6934f8a97c6a503c4e3a46e87f5b08bd000000000000000000000000000000000000000000000000000000000000001454657374205772617070656420426974636f696e00000000000000000000000000000000000000000000000000000000000000000000000000000000000000057457425443000000000000000000000000000000000000000000000000000000",
        "nonce": "0x4f",
        "chainId": "0x14a34"
      },
      "additionalContracts": [],
      "isFixedGasLimit": false
    },
    {
      "hash": "0xafdba730934108597557ef2d909c05096e6de3582aec0535098161e2c3cd5f89",
      "transactionType": "CREATE",
      "contractName": "TestToken",
      "contractAddress": "0xd14135bcdfe39097122830e1f989cc6e11074b96",
      "function": null,
      "arguments": [
        "Test Chainlink Token",
        "tLINK",
        "0xCa60c8eF6934f8a97c6a503C4e3a46e87F5b08bD"
      ],
      "transaction": {
        "from": "0xca60c8ef6934f8a97c6a503c4e3a46e87f5b08bd",
        "gas": "0xda090",
        "value": "0x0",
        "input": "0x6080604052346200037a5762000df6803803806200001d816200037e565b92833981016060828203126200037a5781516001600160401b0391908281116200037a57816200004f918501620003a4565b602091828501518481116200037a576040916200006e918701620003a4565b9401516001600160a01b039485821694918590036200037a57825182811162000285576003918254916001958684811c941680156200036f575b888510146200035b578190601f9485811162000308575b508890858311600114620002a5575f9262000299575b50505f1982861b1c191690861b1783555b8051938411620002855760049586548681811c911680156200027a575b8282101462000267578381116200021f575b5080928511600114620001b557509383949184925f95620001a9575b50501b925f19911b1c19161781555b8115620001925750600580546001600160a01b03198116831790915560405192167f8be0079c531659141344cd1fd0a4f28419497f9722a3daafe3b4186f6b6457e05f80a36109e19081620004158239f35b6024905f60405191631e4fbdf760e01b8352820152fd5b015193505f8062000131565b92919084601f198116885f52855f20955f905b89838310620002045750505010620001ea575b50505050811b01815562000140565b01519060f8845f19921b161c191690555f808080620001db565b858701518955909701969485019488935090810190620001c8565b875f52815f208480880160051c8201928489106200025d575b0160051c019087905b8281106200025157505062000115565b5f815501879062000241565b9250819262000238565b602288634e487b7160e01b5f525260245ffd5b90607f169062000103565b634e487b7160e01b5f52604160045260245ffd5b015190505f80620000d5565b90889350601f19831691875f528a5f20925f5b8c828210620002f15750508411620002d9575b505050811b018355620000e6565b01515f1983881b60f8161c191690555f8080620002cb565b8385015186558c97909501949384019301620002b8565b909150855f52885f208580850160051c8201928b861062000351575b918a91869594930160051c01915b82811062000342575050620000bf565b5f81558594508a910162000332565b9250819262000324565b634e487b7160e01b5f52602260045260245ffd5b93607f1693620000a8565b5f80fd5b6040519190601f01601f191682016001600160401b038111838210176200028557604052565b919080601f840112156200037a5782516001600160401b0381116200028557602090620003da601f8201601f191683016200037e565b928184528282870101116200037a575f5b818110620004005750825f9394955001015290565b8581018301518482018401528201620003eb56fe6080604081815260049182361015610015575f80fd5b5f3560e01c90816306fdde03146106ac57508063095ea7b31461060457806318160ddd146105e657806323b872dd146104f4578063313ce567146104d957806340c10f19146104ad57806370a0823114610477578063715018a61461041c5780637b19a744146103735780638da5cb5b1461034b57806395d89b411461022c578063a9059cbb146101fc578063dd62ed3e146101b3578063f2fde38b146101245763f5617031146100c4575f80fd5b3461012057366003190112610120576100db6107cd565b602435906100e761090b565b670de0b6b3a76400009182810292818404149015171561010d5761010b9250610937565b005b601183634e487b7160e01b5f525260245ffd5b5f80fd5b5090346101205760203660031901126101205761013f6107cd565b9061014861090b565b6001600160a01b0391821692831561019d575050600554826bffffffffffffffffffffffff60a01b821617600555167f8be0079c531659141344cd1fd0a4f28419497f9722a3daafe3b4186f6b6457e05f80a3005b905f6024925191631e4fbdf760e01b8352820152fd5b50346101205780600319360112610120576020906101cf6107cd565b6101d76107e3565b9060018060a01b038091165f5260018452825f2091165f528252805f20549051908152f35b503461012057806003193601126101205760209061022561021b6107cd565b6024359033610831565b5160018152f35b5034610120575f366003190112610120578051905f835460018160011c9060018316928315610341575b602093848410811461032e5783885290811561031257506001146102be575b505050829003601f01601f191682019267ffffffffffffffff8411838510176102ab57508291826102a7925282610786565b0390f35b604190634e487b7160e01b5f525260245ffd5b5f878152929350837f8a35acfbc15ff81a39ae7d344fd709f28e8600b4aa8c65c6b64bfe7fe36bd19b5b8385106102fe57505050508301015f8080610275565b8054888601830152930192849082016102e8565b60ff1916878501525050151560051b84010190505f8080610275565b602289634e487b7160e01b5f525260245ffd5b91607f1691610256565b5034610120575f3660031901126101205760055490516001600160a01b039091168152602090f35b50346101205736600319011261012057803567ffffffffffffffff91828211610120573660238301121561012057810135918211610120576024810190602436918460051b01011161012057602435906103cb61090b565b5f5b8381106103d657005b6001906001600160a01b036103f46103ef8388876107f9565b61081d565b16610400575b016103cd565b610417846104126103ef8489886107f9565b610937565b6103fa565b34610120575f3660031901126101205761043461090b565b600580546001600160a01b031981169091555f906001600160a01b03167f8be0079c531659141344cd1fd0a4f28419497f9722a3daafe3b4186f6b6457e08280a3005b5034610120576020366003190112610120576020906001600160a01b0361049c6107cd565b165f525f8252805f20549051908152f35b5034610120573660031901126101205761010b6104c86107cd565b6104d061090b565b60243590610937565b5034610120575f366003190112610120576020905160128152f35b5090346101205760603660031901126101205761050f6107cd565b6105176107e3565b906044359260018060a01b038216805f526001602052855f20335f52602052855f2054915f198310610552575b602087610225888888610831565b8583106105ba5781156105a457331561058e57505f90815260016020908152868220338352815290869020918590039091558290610225610544565b6024905f885191634a1406b160e11b8352820152fd5b6024905f88519163e602df0560e01b8352820152fd5b8651637dc7a0d960e11b8152339181019182526020820193909352604081018690528291506060010390fd5b5034610120575f366003190112610120576020906002549051908152f35b503461012057806003193601126101205761061d6107cd565b602435903315610696576001600160a01b03169081156106805760209350335f5260018452825f20825f52845280835f205582519081527f8c5be1e5ebec7d5bd14f71427d1e84f3dd0314c0f7b2291e5b200ac8c7c3b925843392a35160018152f35b8251634a1406b160e11b81525f81860152602490fd5b825163e602df0560e01b81525f81860152602490fd5b91905034610120575f366003190112610120575f60035460018160011c906001831692831561077c575b602093848410811461032e57838852908115610312575060011461072657505050829003601f01601f191682019267ffffffffffffffff8411838510176102ab57508291826102a7925282610786565b60035f908152929350837fc2575a0e9e593c00f959f8c92f12db2869c3395a3b0502d05e2516446f71f85b5b83851061076857505050508301015f8080610275565b805488860183015293019284908201610752565b91607f16916106d6565b602080825282518183018190529093925f5b8281106107b957505060409293505f838284010152601f8019910116010190565b818101860151848201604001528501610798565b600435906001600160a01b038216820361012057565b602435906001600160a01b038216820361012057565b91908110156108095760051b0190565b634e487b7160e01b5f52603260045260245ffd5b356001600160a01b03811681036101205790565b916001600160a01b038084169283156108f357169283156108db57825f525f60205260405f2054908282106108a95750817fddf252ad1be2c89b69c2b068fc378daa952ba7f163c4a11628f55a4df523b3ef92602092855f525f84520360405f2055845f5260405f20818154019055604051908152a3565b60405163391434e360e21b81526001600160a01b03919091166004820152602481019190915260448101829052606490fd5b60405163ec442f0560e01b81525f6004820152602490fd5b604051634b637e8f60e11b81525f6004820152602490fd5b6005546001600160a01b0316330361091f57565b60405163118cdaa760e01b8152336004820152602490fd5b6001600160a01b03169081156108db57600254908082018092116109975760207fddf252ad1be2c89b69c2b068fc378daa952ba7f163c4a11628f55a4df523b3ef915f9360025584845283825260408420818154019055604051908152a3565b634e487b7160e01b5f52601160045260245ffdfea26469706673582212206f0175a3013a8ac30cfacf8aec529aeae831ac5d49a878666e87f6c5551aacfe64736f6c63430008180033000000000000000000000000000000000000000000000000000000000000006000000000000000000000000000000000000000000000000000000000000000a0000000000000000000000000ca60c8ef6934f8a97c6a503c4e3a46e87f5b08bd00000000000000000000000000000000000000000000000000000000000000145465737420436861696e6c696e6b20546f6b656e0000000000000000000000000000000000000000000000000000000000000000000000000000000000000005744c494e4b000000000000000000000000000000000000000000000000000000",
        "nonce": "0x50",
        "chainId": "0x14a34"
      },
      "additionalContracts": [],
      "isFixedGasLimit": false
    },
    {
      "hash": "0xf9771d8e5afbda9e5b8a302505a8c1bf31e8d198f20bb3063561621b7079eea1",
      "transactionType": "CALL",
      "contractName": "TestToken",
      "contractAddress": "0xe93695ae429a2c156f216bc615e9dd8d1a9794de",
      "function": "mint(address,uint256)",
      "arguments": [
        "0xD1E84c88734013613230678B8E000dE53e4957dC",
        "5000000000000000000"
      ],
      "transaction": {
        "from": "0xca60c8ef6934f8a97c6a503c4e3a46e87f5b08bd",
        "to": "0xe93695ae429a2c156f216bc615e9dd8d1a9794de",
        "gas": "0x17b39",
        "value": "0x0",
        "input": "0x40c10f19000000000000000000000000d1e84c88734013613230678b8e000de53e4957dc0000000000000000000000000000000000000000000000004563918244f40000",
        "nonce": "0x51",
        "chainId": "0x14a34"
      },
      "additionalContracts": [],
      "isFixedGasLimit": false
    },
    {
      "hash": "0xb9f61735084fbc88c0bb9404f5bee745d2eb2403eca8c8f0e3af546867b7482b",
      "transactionType": "CALL",
      "contractName": "TestToken",
      "contractAddress": "0xcd1ca9d5612b0eaefa6388129366226d9715161a",
      "function": "mint(address,uint256)",
      "arguments": [
        "0xD1E84c88734013613230678B8E000dE53e4957dC",
        "100000000000000000"
      ],
      "transaction": {
        "from": "0xca60c8ef6934f8a97c6a503c4e3a46e87f5b08bd",
        "to": "0xcd1ca9d5612b0eaefa6388129366226d9715161a",
        "gas": "0x17b39",
        "value": "0x0",
        "input": "0x40c10f19000000000000000000000000d1e84c88734013613230678b8e000de53e4957dc000000000000000000000000000000000000000000000000016345785d8a0000",
        "nonce": "0x52",
        "chainId": "0x14a34"
      },
      "additionalContracts": [],
      "isFixedGasLimit": false
    },
    {
      "hash": "0xad496617e70d4d3467a850391d1b405231081e0558f6a64d4bcd30bcf82ddfea",
      "transactionType": "CALL",
      "contractName": "TestToken",
      "contractAddress": "0xd14135bcdfe39097122830e1f989cc6e11074b96",
      "function": "mint(address,uint256)",
      "arguments": [
        "0xD1E84c88734013613230678B8E000dE53e4957dC",
        "100000000000000000000"
      ],
      "transaction": {
        "from": "0xca60c8ef6934f8a97c6a503c4e3a46e87f5b08bd",
        "to": "0xd14135bcdfe39097122830e1f989cc6e11074b96",
        "gas": "0x1919a",
        "value": "0x0",
        "input": "0x40c10f19000000000000000000000000d1e84c88734013613230678b8e000de53e4957dc0000000000000000000000000000000000000000000000056bc75e2d63100000",
        "nonce": "0x53",
        "chainId": "0x14a34"
      },
      "additionalContracts": [],
      "isFixedGasLimit": false
    },
    {
      "hash": "0x477bbe329515d6855093659d6f6382e1c3347dc1405bab96c7c0fabb75b8d890",
      "transactionType": "CALL",
      "contractName": "TestToken",
      "contractAddress": "0xe93695ae429a2c156f216bc615e9dd8d1a9794de",
      "function": "mint(address,uint256)",
      "arguments": [
        "0xBaf9d5E05d82bEA9B971B54AD148904ae25876b2",
        "5000000000000000000"
      ],
      "transaction": {
        "from": "0xca60c8ef6934f8a97c6a503c4e3a46e87f5b08bd",
        "to": "0xe93695ae429a2c156f216bc615e9dd8d1a9794de",
        "gas": "0x11f06",
        "value": "0x0",
        "input": "0x40c10f19000000000000000000000000baf9d5e05d82bea9b971b54ad148904ae25876b20000000000000000000000000000000000000000000000004563918244f40000",
        "nonce": "0x54",
        "chainId": "0x14a34"
      },
      "additionalContracts": [],
      "isFixedGasLimit": false
    },
    {
      "hash": "0xbad2c12afda994580081e594df6454aa032440f91767e98584a3c5b191c7f831",
      "transactionType": "CALL",
      "contractName": "TestToken",
      "contractAddress": "0xcd1ca9d5612b0eaefa6388129366226d9715161a",
      "function": "mint(address,uint256)",
      "arguments": [
        "0xBaf9d5E05d82bEA9B971B54AD148904ae25876b2",
        "100000000000000000"
      ],
      "transaction": {
        "from": "0xca60c8ef6934f8a97c6a503c4e3a46e87f5b08bd",
        "to": "0xcd1ca9d5612b0eaefa6388129366226d9715161a",
        "gas": "0x11f06",
        "value": "0x0",
        "input": "0x40c10f19000000000000000000000000baf9d5e05d82bea9b971b54ad148904ae25876b2000000000000000000000000000000000000000000000000016345785d8a0000",
        "nonce": "0x55",
        "chainId": "0x14a34"
      },
      "additionalContracts": [],
      "isFixedGasLimit": false
    },
    {
      "hash": "0xe9decbdd0653840d70004316d7c087d21fca273f19035770029b4354cdfcde75",
      "transactionType": "CALL",
      "contractName": "TestToken",
      "contractAddress": "0xd14135bcdfe39097122830e1f989cc6e11074b96",
      "function": "mint(address,uint256)",
      "arguments": [
        "0xBaf9d5E05d82bEA9B971B54AD148904ae25876b2",
        "100000000000000000000"
      ],
      "transaction": {
        "from": "0xca60c8ef6934f8a97c6a503c4e3a46e87f5b08bd",
        "to": "0xd14135bcdfe39097122830e1f989cc6e11074b96",
        "gas": "0x12ffb",
        "value": "0x0",
        "input": "0x40c10f19000000000000000000000000baf9d5e05d82bea9b971b54ad148904ae25876b20000000000000000000000000000000000000000000000056bc75e2d63100000",
        "nonce": "0x56",
        "chainId": "0x14a34"
      },
      "additionalContracts": [],
      "isFixedGasLimit": false
    },
    {
      "hash": "0xaa7f0ae02d7244c22bd50837d5d6a19deb4a9bdb0a99bcf0c67d5c57d2701138",
      "transactionType": "CALL",
      "contractName": "TestToken",
      "contractAddress": "0xe93695ae429a2c156f216bc615e9dd8d1a9794de",
      "function": "mint(address,uint256)",
      "arguments": [
        "0x37D57004FdeBd029d9fcB1Cc88e275fEafA89353",
        "5000000000000000000"
      ],
      "transaction": {
        "from": "0xca60c8ef6934f8a97c6a503c4e3a46e87f5b08bd",
        "to": "0xe93695ae429a2c156f216bc615e9dd8d1a9794de",
        "gas": "0x11f06",
        "value": "0x0",
        "input": "0x40c10f1900000000000000000000000037d57004fdebd029d9fcb1cc88e275feafa893530000000000000000000000000000000000000000000000004563918244f40000",
        "nonce": "0x57",
        "chainId": "0x14a34"
      },
      "additionalContracts": [],
      "isFixedGasLimit": false
    },
    {
      "hash": "0x00002c59b2686ff7baf4dd2cdc8318e86ecb2a030c6b1650966e324f550c08c4",
      "transactionType": "CALL",
      "contractName": "TestToken",
      "contractAddress": "0xcd1ca9d5612b0eaefa6388129366226d9715161a",
      "function": "mint(address,uint256)",
      "arguments": [
        "0x37D57004FdeBd029d9fcB1Cc88e275fEafA89353",
        "100000000000000000"
      ],
      "transaction": {
        "from": "0xca60c8ef6934f8a97c6a503c4e3a46e87f5b08bd",
        "to": "0xcd1ca9d5612b0eaefa6388129366226d9715161a",
        "gas": "0x11f06",
        "value": "0x0",
        "input": "0x40c10f1900000000000000000000000037d57004fdebd029d9fcb1cc88e275feafa89353000000000000000000000000000000000000000000000000016345785d8a0000",
        "nonce": "0x58",
        "chainId": "0x14a34"
      },
      "additionalContracts": [],
      "isFixedGasLimit": false
    },
    {
      "hash": "0x1a2ea0e364b63585236c82a0f351d09038414a4ca93b1ec823ee4973f1162308",
      "transactionType": "CALL",
      "contractName": "TestToken",
      "contractAddress": "0xd14135bcdfe39097122830e1f989cc6e11074b96",
      "function": "mint(address,uint256)",
      "arguments": [
        "0x37D57004FdeBd029d9fcB1Cc88e275fEafA89353",
        "100000000000000000000"
      ],
      "transaction": {
        "from": "0xca60c8ef6934f8a97c6a503c4e3a46e87f5b08bd",
        "to": "0xd14135bcdfe39097122830e1f989cc6e11074b96",
        "gas": "0x12ffb",
        "value": "0x0",
        "input": "0x40c10f1900000000000000000000000037d57004fdebd029d9fcb1cc88e275feafa893530000000000000000000000000000000000000000000000056bc75e2d63100000",
        "nonce": "0x59",
        "chainId": "0x14a34"
      },
      "additionalContracts": [],
      "isFixedGasLimit": false
    },
    {
      "hash": "0x91feae4e8912d9f39e9a54709a2e673a5043acbf2829927b956e1a9d212d186a",
      "transactionType": "CALL",
      "contractName": "TestToken",
      "contractAddress": "0xe93695ae429a2c156f216bc615e9dd8d1a9794de",
      "function": "mint(address,uint256)",
      "arguments": [
        "0x5159345B9944Ab14D05c18853923070D3EBF60ad",
        "5000000000000000000"
      ],
      "transaction": {
        "from": "0xca60c8ef6934f8a97c6a503c4e3a46e87f5b08bd",
        "to": "0xe93695ae429a2c156f216bc615e9dd8d1a9794de",
        "gas": "0x11f06",
        "value": "0x0",
        "input": "0x40c10f190000000000000000000000005159345b9944ab14d05c18853923070d3ebf60ad0000000000000000000000000000000000000000000000004563918244f40000",
        "nonce": "0x5a",
        "chainId": "0x14a34"
      },
      "additionalContracts": [],
      "isFixedGasLimit": false
    },
    {
      "hash": "0xdfeaf3289a767f2a63824b663ee7163afba7af8e4e6e2e19fdec45d44d386334",
      "transactionType": "CALL",
      "contractName": "TestToken",
      "contractAddress": "0xcd1ca9d5612b0eaefa6388129366226d9715161a",
      "function": "mint(address,uint256)",
      "arguments": [
        "0x5159345B9944Ab14D05c18853923070D3EBF60ad",
        "100000000000000000"
      ],
      "transaction": {
        "from": "0xca60c8ef6934f8a97c6a503c4e3a46e87f5b08bd",
        "to": "0xcd1ca9d5612b0eaefa6388129366226d9715161a",
        "gas": "0x11f06",
        "value": "0x0",
        "input": "0x40c10f190000000000000000000000005159345b9944ab14d05c18853923070d3ebf60ad000000000000000000000000000000000000000000000000016345785d8a0000",
        "nonce": "0x5b",
        "chainId": "0x14a34"
      },
      "additionalContracts": [],
      "isFixedGasLimit": false
    },
    {
      "hash": "0x1f1302914edd325e76a87ee8c62949ba743c5670bd1aab26056aedca1009f1ca",
      "transactionType": "CALL",
      "contractName": "TestToken",
      "contractAddress": "0xd14135bcdfe39097122830e1f989cc6e11074b96",
      "function": "mint(address,uint256)",
      "arguments": [
        "0x5159345B9944Ab14D05c18853923070D3EBF60ad",
        "100000000000000000000"
      ],
      "transaction": {
        "from": "0xca60c8ef6934f8a97c6a503c4e3a46e87f5b08bd",
        "to": "0xd14135bcdfe39097122830e1f989cc6e11074b96",
        "gas": "0x12ffb",
        "value": "0x0",
        "input": "0x40c10f190000000000000000000000005159345b9944ab14d05c18853923070d3ebf60ad0000000000000000000000000000000000000000000000056bc75e2d63100000",
        "nonce": "0x5c",
        "chainId": "0x14a34"
      },
      "additionalContracts": [],
      "isFixedGasLimit": false
    },
    {
      "hash": "0x5300295d5b484e54383f89e46bbd9e7ac6dc05673cd27d0bf2bcb16f40fc1bd5",
      "transactionType": "CALL",
      "contractName": "TestToken",
      "contractAddress": "0xe93695ae429a2c156f216bc615e9dd8d1a9794de",
      "function": "mint(address,uint256)",
      "arguments": [
        "0x4EED792404bbC7bC98648EbE653E38995B8e3DfB",
        "5000000000000000000"
      ],
      "transaction": {
        "from": "0xca60c8ef6934f8a97c6a503c4e3a46e87f5b08bd",
        "to": "0xe93695ae429a2c156f216bc615e9dd8d1a9794de",
        "gas": "0x11f06",
        "value": "0x0",
        "input": "0x40c10f190000000000000000000000004eed792404bbc7bc98648ebe653e38995b8e3dfb0000000000000000000000000000000000000000000000004563918244f40000",
        "nonce": "0x5d",
        "chainId": "0x14a34"
      },
      "additionalContracts": [],
      "isFixedGasLimit": false
    },
    {
      "hash": "0x99051e151e4d672b41a6243d34287c17218f12f6ac534e0b6d4c445168dcd25f",
      "transactionType": "CALL",
      "contractName": "TestToken",
      "contractAddress": "0xcd1ca9d5612b0eaefa6388129366226d9715161a",
      "function": "mint(address,uint256)",
      "arguments": [
        "0x4EED792404bbC7bC98648EbE653E38995B8e3DfB",
        "100000000000000000"
      ],
      "transaction": {
        "from": "0xca60c8ef6934f8a97c6a503c4e3a46e87f5b08bd",
        "to": "0xcd1ca9d5612b0eaefa6388129366226d9715161a",
        "gas": "0x11f06",
        "value": "0x0",
        "input": "0x40c10f190000000000000000000000004eed792404bbc7bc98648ebe653e38995b8e3dfb000000000000000000000000000000000000000000000000016345785d8a0000",
        "nonce": "0x5e",
        "chainId": "0x14a34"
      },
      "additionalContracts": [],
      "isFixedGasLimit": false
    },
    {
      "hash": "0x583c73a827694754be4b3804addcdbb990d9e6dbfeff51322d149c4563409139",
      "transactionType": "CALL",
      "contractName": "TestToken",
      "contractAddress": "0xd14135bcdfe39097122830e1f989cc6e11074b96",
      "function": "mint(address,uint256)",
      "arguments": [
        "0x4EED792404bbC7bC98648EbE653E38995B8e3DfB",
        "100000000000000000000"
      ],
      "transaction": {
        "from": "0xca60c8ef6934f8a97c6a503c4e3a46e87f5b08bd",
        "to": "0xd14135bcdfe39097122830e1f989cc6e11074b96",
        "gas": "0x12ffb",
        "value": "0x0",
        "input": "0x40c10f190000000000000000000000004eed792404bbc7bc98648ebe653e38995b8e3dfb0000000000000000000000000000000000000000000000056bc75e2d63100000",
        "nonce": "0x5f",
        "chainId": "0x14a34"
      },
      "additionalContracts": [],
      "isFixedGasLimit": false
    }
  ],
  "receipts": [
    {
      "status": "0x1",
      "cumulativeGasUsed": "0x78f55f",
      "logs": [
        {
          "address": "0xe93695ae429a2c156f216bc615e9dd8d1a9794de",
          "topics": [
            "0x8be0079c531659141344cd1fd0a4f28419497f9722a3daafe3b4186f6b6457e0",
            "0x0000000000000000000000000000000000000000000000000000000000000000",
            "0x000000000000000000000000ca60c8ef6934f8a97c6a503c4e3a46e87f5b08bd"
          ],
          "data": "0x",
          "blockHash": "0x014bf03f26fed72373de86bb8c8a52675da5f8bf25e5b5d457339269be6670a3",
          "blockNumber": "0x268116b",
          "blockTimestamp": "0x69e381b6",
          "transactionHash": "0x3ac392aca4d78b02b6b9e84509954d9442c990c52875d55de680814f7c7eddd4",
          "transactionIndex": "0x13",
          "logIndex": "0x138",
          "removed": false
        }
      ],
      "logsBloom": "0x00000000000004000000000000000000000000000000000000800000000000000000000000000000000000000000000000000000000000000000000000000800000000000000000000000000000000000001000000000000000000000000000000000000020000000000000000000800000000000000000000000000000000400000000000000000000000000000000000000000000000000000000000000000000000100000000000000000000000000000000000000000000000000000000000000000000000000000400100000000000000000000000000000000000020040000000000000000000000000000000000000000000000000000000000000000",
      "type": "0x2",
      "transactionHash": "0x3ac392aca4d78b02b6b9e84509954d9442c990c52875d55de680814f7c7eddd4",
      "transactionIndex": "0x13",
      "blockHash": "0x014bf03f26fed72373de86bb8c8a52675da5f8bf25e5b5d457339269be6670a3",
      "blockNumber": "0x268116b",
      "gasUsed": "0xa7b6b",
      "effectiveGasPrice": "0x5b8d80",
      "blobGasUsed": "0x54d70",
      "from": "0xca60c8ef6934f8a97c6a503c4e3a46e87f5b08bd",
      "to": null,
      "contractAddress": "0xe93695ae429a2c156f216bc615e9dd8d1a9794de",
      "daFootprintGasScalar": "0x94",
      "l1BaseFeeScalar": "0x44d",
      "l1BlobBaseFee": "0x4",
      "l1BlobBaseFeeScalar": "0xa118b",
      "l1Fee": "0x235f",
      "l1GasPrice": "0x45",
      "l1GasUsed": "0x92cf"
    },
    {
      "status": "0x1",
      "cumulativeGasUsed": "0x1bd500",
      "logs": [
        {
          "address": "0xcd1ca9d5612b0eaefa6388129366226d9715161a",
          "topics": [
            "0x8be0079c531659141344cd1fd0a4f28419497f9722a3daafe3b4186f6b6457e0",
            "0x0000000000000000000000000000000000000000000000000000000000000000",
            "0x000000000000000000000000ca60c8ef6934f8a97c6a503c4e3a46e87f5b08bd"
          ],
          "data": "0x",
          "blockHash": "0xbc24324365b3f4aa2fd33f14fecdfb3e9fa7cbaae233b087a467d28d45173b1d",
          "blockNumber": "0x268116c",
          "blockTimestamp": "0x69e381b8",
          "transactionHash": "0x78e79a01af4c0e6dc5ff3facbb1dda637f7884b84c1ce4d064ea12aab07a2033",
          "transactionIndex": "0x5",
          "logIndex": "0xa",
          "removed": false
        }
      ],
      "logsBloom": "0x00000000000000000000000000000100000000000000000000800000000000000000000000000000000000000000000000000000000000000000000000000800000000000000000000000000000000000001000000000000000000000000100000000000020000000000000000000800000000000000000000000000000000400000000000000000000000000000000000000000000000000000000000000000000000000000000000000000000000000000000000000000000000000000000000000000000000000000400100000000000000000000000000000000000020000000000000000000000000000000000008000000000000000000000000000000",
      "type": "0x2",
      "transactionHash": "0x78e79a01af4c0e6dc5ff3facbb1dda637f7884b84c1ce4d064ea12aab07a2033",
      "transactionIndex": "0x5",
      "blockHash": "0xbc24324365b3f4aa2fd33f14fecdfb3e9fa7cbaae233b087a467d28d45173b1d",
      "blockNumber": "0x268116c",
      "gasUsed": "0xa7b83",
      "effectiveGasPrice": "0x5b8d80",
      "blobGasUsed": "0x54e98",
      "from": "0xca60c8ef6934f8a97c6a503c4e3a46e87f5b08bd",
      "to": null,
      "contractAddress": "0xcd1ca9d5612b0eaefa6388129366226d9715161a",
      "daFootprintGasScalar": "0x94",
      "l1BaseFeeScalar": "0x44d",
      "l1BlobBaseFee": "0x4",
      "l1BlobBaseFeeScalar": "0xa118b",
      "l1Fee": "0x2365",
      "l1GasPrice": "0x45",
      "l1GasUsed": "0x92ea"
    },
    {
      "status": "0x1",
      "cumulativeGasUsed": "0x441f8e",
      "logs": [
        {
          "address": "0xd14135bcdfe39097122830e1f989cc6e11074b96",
          "topics": [
            "0x8be0079c531659141344cd1fd0a4f28419497f9722a3daafe3b4186f6b6457e0",
            "0x0000000000000000000000000000000000000000000000000000000000000000",
            "0x000000000000000000000000ca60c8ef6934f8a97c6a503c4e3a46e87f5b08bd"
          ],
          "data": "0x",
          "blockHash": "0xbc24324365b3f4aa2fd33f14fecdfb3e9fa7cbaae233b087a467d28d45173b1d",
          "blockNumber": "0x268116c",
          "blockTimestamp": "0x69e381b8",
          "transactionHash": "0x00002c59b2686ff7baf4dd2cdc8318e86ecb2a030c6b1650966e324f550c08c4",
          "transactionIndex": "0xe",
          "logIndex": "0x36",
          "removed": false
        }
      ],
      "logsBloom": "0x00000000000000000000000000000000000000000000000000800000000000000000000000000000000000000000000000000000000000000000000000004800000000000000000000000000000000000001000000000000000000000000000000000000020000000000000000000800000000000000000000000000000000400000000000000000000000000200000000000000000000000000000000000000000000000000000000000000000000000000000000000000000000020000000000000000000000000000400100000000000000000000000000000000000020000000000000000000000000000000000000000000000000000000000000000000",
      "type": "0x2",
      "transactionHash": "0x00002c59b2686ff7baf4dd2cdc8318e86ecb2a030c6b1650966e324f550c08c4",
      "transactionIndex": "0xe",
      "blockHash": "0xbc24324365b3f4aa2fd33f14fecdfb3e9fa7cbaae233b087a467d28d45173b1d",
      "blockNumber": "0x268116c",
      "gasUsed": "0xa7b83",
      "effectiveGasPrice": "0x5b8d80",
      "blobGasUsed": "0x54e98",
      "from": "0xca60c8ef6934f8a97c6a503c4e3a46e87f5b08bd",
      "to": null,
      "contractAddress": "0xd14135bcdfe39097122830e1f989cc6e11074b96",
      "daFootprintGasScalar": "0x94",
      "l1BaseFeeScalar": "0x44d",
      "l1BlobBaseFee": "0x4",
      "l1BlobBaseFeeScalar": "0xa118b",
      "l1Fee": "0x2365",
      "l1GasPrice": "0x45",
      "l1GasUsed": "0x92ea"
    },
    {
      "status": "0x1",
      "cumulativeGasUsed": "0x45321c",
      "logs": [
        {
          "address": "0xe93695ae429a2c156f216bc615e9dd8d1a9794de",
          "topics": [
            "0xddf252ad1be2c89b69c2b068fc378daa952ba7f163c4a11628f55a4df523b3ef",
            "0x0000000000000000000000000000000000000000000000000000000000000000",
            "0x000000000000000000000000d1e84c88734013613230678b8e000de53e4957dc"
          ],
          "data": "0x0000000000000000000000000000000000000000000000004563918244f40000",
          "blockHash": "0xbc24324365b3f4aa2fd33f14fecdfb3e9fa7cbaae233b087a467d28d45173b1d",
          "blockNumber": "0x268116c",
          "blockTimestamp": "0x69e381b8",
          "transactionHash": "0x5300295d5b484e54383f89e46bbd9e7ac6dc05673cd27d0bf2bcb16f40fc1bd5",
          "transactionIndex": "0xf",
          "logIndex": "0x37",
          "removed": false
        }
      ],
      "logsBloom": "0x00000000000004000000000000000000000000000000000000080000000000000000000000000000000000000000000000000000000000000000000000000000000000000000000000000008000000000000000000000000000000000000000000000000020000000000000000000800000000000000000000000010000000000000000000000000080000000000000000000000000000000001000000000000000000100000000000000000000000000000000000000000000000000000000000000002000000000000000000000000000000000000000000000000000020040000000000000000000000000000000000000000000000000000000000000000",
      "type": "0x2",
      "transactionHash": "0x5300295d5b484e54383f89e46bbd9e7ac6dc05673cd27d0bf2bcb16f40fc1bd5",
      "transactionIndex": "0xf",
      "blockHash": "0xbc24324365b3f4aa2fd33f14fecdfb3e9fa7cbaae233b087a467d28d45173b1d",
      "blockNumber": "0x268116c",
      "gasUsed": "0x1128e",
      "effectiveGasPrice": "0x5b8d80",
      "blobGasUsed": "0x39d0",
      "from": "0xca60c8ef6934f8a97c6a503c4e3a46e87f5b08bd",
      "to": "0xe93695ae429a2c156f216bc615e9dd8d1a9794de",
      "contractAddress": null,
      "daFootprintGasScalar": "0x94",
      "l1BaseFeeScalar": "0x44d",
      "l1BlobBaseFee": "0x4",
      "l1BlobBaseFeeScalar": "0xa118b",
      "l1Fee": "0x181",
      "l1GasPrice": "0x45",
      "l1GasUsed": "0x640"
    },
    {
      "status": "0x1",
      "cumulativeGasUsed": "0x4644aa",
      "logs": [
        {
          "address": "0xcd1ca9d5612b0eaefa6388129366226d9715161a",
          "topics": [
            "0xddf252ad1be2c89b69c2b068fc378daa952ba7f163c4a11628f55a4df523b3ef",
            "0x0000000000000000000000000000000000000000000000000000000000000000",
            "0x000000000000000000000000d1e84c88734013613230678b8e000de53e4957dc"
          ],
          "data": "0x000000000000000000000000000000000000000000000000016345785d8a0000",
          "blockHash": "0xbc24324365b3f4aa2fd33f14fecdfb3e9fa7cbaae233b087a467d28d45173b1d",
          "blockNumber": "0x268116c",
          "blockTimestamp": "0x69e381b8",
          "transactionHash": "0xad496617e70d4d3467a850391d1b405231081e0558f6a64d4bcd30bcf82ddfea",
          "transactionIndex": "0x10",
          "logIndex": "0x38",
          "removed": false
        }
      ],
      "logsBloom": "0x00000000000000000000000000000100000000000000000000080000000000000000000000000000000000000000000000000000000000000000000000000000000000000000000000000008000000000000000000000000000000000000100000000000020000000000000000000800000000000000000000000010000000000000000000000000080000000000000000000000000000000001000000000000000000000000000000000000000000000000000000000000000000000000000000000002000000000000000000000000000000000000000000000000000020000000000000000000000000000000000008000000000000000000000000000000",
      "type": "0x2",
      "transactionHash": "0xad496617e70d4d3467a850391d1b405231081e0558f6a64d4bcd30bcf82ddfea",
      "transactionIndex": "0x10",
      "blockHash": "0xbc24324365b3f4aa2fd33f14fecdfb3e9fa7cbaae233b087a467d28d45173b1d",
      "blockNumber": "0x268116c",
      "gasUsed": "0x1128e",
      "effectiveGasPrice": "0x5b8d80",
      "blobGasUsed": "0x39d0",
      "from": "0xca60c8ef6934f8a97c6a503c4e3a46e87f5b08bd",
      "to": "0xcd1ca9d5612b0eaefa6388129366226d9715161a",
      "contractAddress": null,
      "daFootprintGasScalar": "0x94",
      "l1BaseFeeScalar": "0x44d",
      "l1BlobBaseFee": "0x4",
      "l1BlobBaseFeeScalar": "0xa118b",
      "l1Fee": "0x181",
      "l1GasPrice": "0x45",
      "l1GasUsed": "0x640"
    },
    {
      "status": "0x1",
      "cumulativeGasUsed": "0x475744",
      "logs": [
        {
          "address": "0xd14135bcdfe39097122830e1f989cc6e11074b96",
          "topics": [
            "0xddf252ad1be2c89b69c2b068fc378daa952ba7f163c4a11628f55a4df523b3ef",
            "0x0000000000000000000000000000000000000000000000000000000000000000",
            "0x000000000000000000000000d1e84c88734013613230678b8e000de53e4957dc"
          ],
          "data": "0x0000000000000000000000000000000000000000000000056bc75e2d63100000",
          "blockHash": "0xbc24324365b3f4aa2fd33f14fecdfb3e9fa7cbaae233b087a467d28d45173b1d",
          "blockNumber": "0x268116c",
          "blockTimestamp": "0x69e381b8",
          "transactionHash": "0xafdba730934108597557ef2d909c05096e6de3582aec0535098161e2c3cd5f89",
          "transactionIndex": "0x11",
          "logIndex": "0x39",
          "removed": false
        }
      ],
      "logsBloom": "0x00000000000000000000000000000000000000000000000000080000000000000000000000000000000000000000000000000000000000000000000000004000000000000000000000000008000000000000000000000000000000000000000000000000020000000000000000000800000000000000000000000010000000000000000000000000080000000200000000000000000000000001000000000000000000000000000000000000000000000000000000000000000000020000000000000002000000000000000000000000000000000000000000000000000020000000000000000000000000000000000000000000000000000000000000000000",
      "type": "0x2",
      "transactionHash": "0xafdba730934108597557ef2d909c05096e6de3582aec0535098161e2c3cd5f89",
      "transactionIndex": "0x11",
      "blockHash": "0xbc24324365b3f4aa2fd33f14fecdfb3e9fa7cbaae233b087a467d28d45173b1d",
      "blockNumber": "0x268116c",
      "gasUsed": "0x1129a",
      "effectiveGasPrice": "0x5b8d80",
      "blobGasUsed": "0x39d0",
      "from": "0xca60c8ef6934f8a97c6a503c4e3a46e87f5b08bd",
      "to": "0xd14135bcdfe39097122830e1f989cc6e11074b96",
      "contractAddress": null,
      "daFootprintGasScalar": "0x94",
      "l1BaseFeeScalar": "0x44d",
      "l1BlobBaseFee": "0x4",
      "l1BlobBaseFeeScalar": "0xa118b",
      "l1Fee": "0x181",
      "l1GasPrice": "0x45",
      "l1GasUsed": "0x640"
    },
    {
      "status": "0x1",
      "cumulativeGasUsed": "0x482712",
      "logs": [
        {
          "address": "0xe93695ae429a2c156f216bc615e9dd8d1a9794de",
          "topics": [
            "0xddf252ad1be2c89b69c2b068fc378daa952ba7f163c4a11628f55a4df523b3ef",
            "0x0000000000000000000000000000000000000000000000000000000000000000",
            "0x000000000000000000000000baf9d5e05d82bea9b971b54ad148904ae25876b2"
          ],
          "data": "0x0000000000000000000000000000000000000000000000004563918244f40000",
          "blockHash": "0xbc24324365b3f4aa2fd33f14fecdfb3e9fa7cbaae233b087a467d28d45173b1d",
          "blockNumber": "0x268116c",
          "blockTimestamp": "0x69e381b8",
          "transactionHash": "0xaa7f0ae02d7244c22bd50837d5d6a19deb4a9bdb0a99bcf0c67d5c57d2701138",
          "transactionIndex": "0x12",
          "logIndex": "0x3a",
          "removed": false
        }
      ],
      "logsBloom": "0x00000000000004000000000000000000000000000000000000000000000001000000000000000000000000000000000000000000000000000000000000000000000000000000000000000008000000000000000000000000000000000000000000000000020000000000000000000800000000000000000000000010000000000000000000000000000000000000000000000000000000000000000000000000000000100000000000000000000000000000000000000000000000000000000000000002000000000000000000000000000000000000000000000000000020040000000000000000000080000000000004000000000000000000000000000000",
      "type": "0x2",
      "transactionHash": "0xaa7f0ae02d7244c22bd50837d5d6a19deb4a9bdb0a99bcf0c67d5c57d2701138",
      "transactionIndex": "0x12",
      "blockHash": "0xbc24324365b3f4aa2fd33f14fecdfb3e9fa7cbaae233b087a467d28d45173b1d",
      "blockNumber": "0x268116c",
      "gasUsed": "0xcfce",
      "effectiveGasPrice": "0x5b8d80",
      "blobGasUsed": "0x39d0",
      "from": "0xca60c8ef6934f8a97c6a503c4e3a46e87f5b08bd",
      "to": "0xe93695ae429a2c156f216bc615e9dd8d1a9794de",
      "contractAddress": null,
      "daFootprintGasScalar": "0x94",
      "l1BaseFeeScalar": "0x44d",
      "l1BlobBaseFee": "0x4",
      "l1BlobBaseFeeScalar": "0xa118b",
      "l1Fee": "0x181",
      "l1GasPrice": "0x45",
      "l1GasUsed": "0x640"
    },
    {
      "status": "0x1",
      "cumulativeGasUsed": "0x48f6e0",
      "logs": [
        {
          "address": "0xcd1ca9d5612b0eaefa6388129366226d9715161a",
          "topics": [
            "0xddf252ad1be2c89b69c2b068fc378daa952ba7f163c4a11628f55a4df523b3ef",
            "0x0000000000000000000000000000000000000000000000000000000000000000",
            "0x000000000000000000000000baf9d5e05d82bea9b971b54ad148904ae25876b2"
          ],
          "data": "0x000000000000000000000000000000000000000000000000016345785d8a0000",
          "blockHash": "0xbc24324365b3f4aa2fd33f14fecdfb3e9fa7cbaae233b087a467d28d45173b1d",
          "blockNumber": "0x268116c",
          "blockTimestamp": "0x69e381b8",
          "transactionHash": "0xf9771d8e5afbda9e5b8a302505a8c1bf31e8d198f20bb3063561621b7079eea1",
          "transactionIndex": "0x13",
          "logIndex": "0x3b",
          "removed": false
        }
      ],
      "logsBloom": "0x0000000000000000000000000000010000000000000000000000000000000100000000000000000000000000000000000000000000000000000000000000000000000000000000000000000800000000000000000000000000000000000010000000000002000000000000000000080000000000000000000000001000000000000000000000000000000000000000000000000000000000000000000000000000000000000000000000000000000000000000000000000000000000000000000000000200000000000000000000000000000000000000000000000000002000000000000000000000008000000000000c000000000000000000000000000000",
      "type": "0x2",
      "transactionHash": "0xf9771d8e5afbda9e5b8a302505a8c1bf31e8d198f20bb3063561621b7079eea1",
      "transactionIndex": "0x13",
      "blockHash": "0xbc24324365b3f4aa2fd33f14fecdfb3e9fa7cbaae233b087a467d28d45173b1d",
      "blockNumber": "0x268116c",
      "gasUsed": "0xcfce",
      "effectiveGasPrice": "0x5b8d80",
      "blobGasUsed": "0x39d0",
      "from": "0xca60c8ef6934f8a97c6a503c4e3a46e87f5b08bd",
      "to": "0xcd1ca9d5612b0eaefa6388129366226d9715161a",
      "contractAddress": null,
      "daFootprintGasScalar": "0x94",
      "l1BaseFeeScalar": "0x44d",
      "l1BlobBaseFee": "0x4",
      "l1BlobBaseFeeScalar": "0xa118b",
      "l1Fee": "0x181",
      "l1GasPrice": "0x45",
      "l1GasUsed": "0x640"
    },
    {
      "status": "0x1",
      "cumulativeGasUsed": "0x49c6ba",
      "logs": [
        {
          "address": "0xd14135bcdfe39097122830e1f989cc6e11074b96",
          "topics": [
            "0xddf252ad1be2c89b69c2b068fc378daa952ba7f163c4a11628f55a4df523b3ef",
            "0x0000000000000000000000000000000000000000000000000000000000000000",
            "0x000000000000000000000000baf9d5e05d82bea9b971b54ad148904ae25876b2"
          ],
          "data": "0x0000000000000000000000000000000000000000000000056bc75e2d63100000",
          "blockHash": "0xbc24324365b3f4aa2fd33f14fecdfb3e9fa7cbaae233b087a467d28d45173b1d",
          "blockNumber": "0x268116c",
          "blockTimestamp": "0x69e381b8",
          "transactionHash": "0xb9f61735084fbc88c0bb9404f5bee745d2eb2403eca8c8f0e3af546867b7482b",
          "transactionIndex": "0x14",
          "logIndex": "0x3c",
          "removed": false
        }
      ],
      "logsBloom": "0x00000000000000000000000000000000000000000000000000000000000001000000000000000000000000000000000000000000000000000000000000004000000000000000000000000008000000000000000000000000000000000000000000000000020000000000000000000800000000000000000000000010000000000000000000000000000000000200000000000000000000000000000000000000000000000000000000000000000000000000000000000000000000020000000000000002000000000000000000000000000000000000000000000000000020000000000000000000000080000000000004000000000000000000000000000000",
      "type": "0x2",
      "transactionHash": "0xb9f61735084fbc88c0bb9404f5bee745d2eb2403eca8c8f0e3af546867b7482b",
      "transactionIndex": "0x14",
      "blockHash": "0xbc24324365b3f4aa2fd33f14fecdfb3e9fa7cbaae233b087a467d28d45173b1d",
      "blockNumber": "0x268116c",
      "gasUsed": "0xcfda",
      "effectiveGasPrice": "0x5b8d80",
      "blobGasUsed": "0x39d0",
      "from": "0xca60c8ef6934f8a97c6a503c4e3a46e87f5b08bd",
      "to": "0xd14135bcdfe39097122830e1f989cc6e11074b96",
      "contractAddress": null,
      "daFootprintGasScalar": "0x94",
      "l1BaseFeeScalar": "0x44d",
      "l1BlobBaseFee": "0x4",
      "l1BlobBaseFeeScalar": "0xa118b",
      "l1Fee": "0x181",
      "l1GasPrice": "0x45",
      "l1GasUsed": "0x640"
    },
    {
      "status": "0x1",
      "cumulativeGasUsed": "0x4a9688",
      "logs": [
        {
          "address": "0xe93695ae429a2c156f216bc615e9dd8d1a9794de",
          "topics": [
            "0xddf252ad1be2c89b69c2b068fc378daa952ba7f163c4a11628f55a4df523b3ef",
            "0x0000000000000000000000000000000000000000000000000000000000000000",
            "0x00000000000000000000000037d57004fdebd029d9fcb1cc88e275feafa89353"
          ],
          "data": "0x0000000000000000000000000000000000000000000000004563918244f40000",
          "blockHash": "0xbc24324365b3f4aa2fd33f14fecdfb3e9fa7cbaae233b087a467d28d45173b1d",
          "blockNumber": "0x268116c",
          "blockTimestamp": "0x69e381b8",
          "transactionHash": "0x1f1302914edd325e76a87ee8c62949ba743c5670bd1aab26056aedca1009f1ca",
          "transactionIndex": "0x15",
          "logIndex": "0x3d",
          "removed": false
        }
      ],
      "logsBloom": "0x00000000000004000000000000000000000000000000000000000000000000000000000000000000000000000000000000000000000000000000000000000000000000000000000000000008000000000000000000000000000000000000000000000000020000000000000000000800000000000000000000000011000000000000000000000000000000000000000000000000000000000000000000004000000000100000000000000000000000000000000000000000000000000000000000000002000000000000000000000000000000000000000000000000000020040000000000000000000000000000000080000000000000000000000000000000",
      "type": "0x2",
      "transactionHash": "0x1f1302914edd325e76a87ee8c62949ba743c5670bd1aab26056aedca1009f1ca",
      "transactionIndex": "0x15",
      "blockHash": "0xbc24324365b3f4aa2fd33f14fecdfb3e9fa7cbaae233b087a467d28d45173b1d",
      "blockNumber": "0x268116c",
      "gasUsed": "0xcfce",
      "effectiveGasPrice": "0x5b8d80",
      "blobGasUsed": "0x39d0",
      "from": "0xca60c8ef6934f8a97c6a503c4e3a46e87f5b08bd",
      "to": "0xe93695ae429a2c156f216bc615e9dd8d1a9794de",
      "contractAddress": null,
      "daFootprintGasScalar": "0x94",
      "l1BaseFeeScalar": "0x44d",
      "l1BlobBaseFee": "0x4",
      "l1BlobBaseFeeScalar": "0xa118b",
      "l1Fee": "0x181",
      "l1GasPrice": "0x45",
      "l1GasUsed": "0x640"
    },
    {
      "status": "0x1",
      "cumulativeGasUsed": "0x4b6656",
      "logs": [
        {
          "address": "0xcd1ca9d5612b0eaefa6388129366226d9715161a",
          "topics": [
            "0xddf252ad1be2c89b69c2b068fc378daa952ba7f163c4a11628f55a4df523b3ef",
            "0x0000000000000000000000000000000000000000000000000000000000000000",
            "0x00000000000000000000000037d57004fdebd029d9fcb1cc88e275feafa89353"
          ],
          "data": "0x000000000000000000000000000000000000000000000000016345785d8a0000",
          "blockHash": "0xbc24324365b3f4aa2fd33f14fecdfb3e9fa7cbaae233b087a467d28d45173b1d",
          "blockNumber": "0x268116c",
          "blockTimestamp": "0x69e381b8",
          "transactionHash": "0x583c73a827694754be4b3804addcdbb990d9e6dbfeff51322d149c4563409139",
          "transactionIndex": "0x16",
          "logIndex": "0x3e",
          "removed": false
        }
      ],
      "logsBloom": "0x00000000000000000000000000000100000000000000000000000000000000000000000000000000000000000000000000000000000000000000000000000000000000000000000000000008000000000000000000000000000000000000100000000000020000000000000000000800000000000000000000000011000000000000000000000000000000000000000000000000000000000000000000004000000000000000000000000000000000000000000000000000000000000000000000000002000000000000000000000000000000000000000000000000000020000000000000000000000000000000000088000000000000000000000000000000",
      "type": "0x2",
      "transactionHash": "0x583c73a827694754be4b3804addcdbb990d9e6dbfeff51322d149c4563409139",
      "transactionIndex": "0x16",
      "blockHash": "0xbc24324365b3f4aa2fd33f14fecdfb3e9fa7cbaae233b087a467d28d45173b1d",
      "blockNumber": "0x268116c",
      "gasUsed": "0xcfce",
      "effectiveGasPrice": "0x5b8d80",
      "blobGasUsed": "0x39d0",
      "from": "0xca60c8ef6934f8a97c6a503c4e3a46e87f5b08bd",
      "to": "0xcd1ca9d5612b0eaefa6388129366226d9715161a",
      "contractAddress": null,
      "daFootprintGasScalar": "0x94",
      "l1BaseFeeScalar": "0x44d",
      "l1BlobBaseFee": "0x4",
      "l1BlobBaseFeeScalar": "0xa118b",
      "l1Fee": "0x181",
      "l1GasPrice": "0x45",
      "l1GasUsed": "0x640"
    },
    {
      "status": "0x1",
      "cumulativeGasUsed": "0x4c3630",
      "logs": [
        {
          "address": "0xd14135bcdfe39097122830e1f989cc6e11074b96",
          "topics": [
            "0xddf252ad1be2c89b69c2b068fc378daa952ba7f163c4a11628f55a4df523b3ef",
            "0x0000000000000000000000000000000000000000000000000000000000000000",
            "0x00000000000000000000000037d57004fdebd029d9fcb1cc88e275feafa89353"
          ],
          "data": "0x0000000000000000000000000000000000000000000000056bc75e2d63100000",
          "blockHash": "0xbc24324365b3f4aa2fd33f14fecdfb3e9fa7cbaae233b087a467d28d45173b1d",
          "blockNumber": "0x268116c",
          "blockTimestamp": "0x69e381b8",
          "transactionHash": "0xe9decbdd0653840d70004316d7c087d21fca273f19035770029b4354cdfcde75",
          "transactionIndex": "0x17",
          "logIndex": "0x3f",
          "removed": false
        }
      ],
      "logsBloom": "0x00000000000000000000000000000000000000000000000000000000000000000000000000000000000000000000000000000000000000000000000000004000000000000000000000000008000000000000000000000000000000000000000000000000020000000000000000000800000000000000000000000011000000000000000000000000000000000200000000000000000000000000000000004000000000000000000000000000000000000000000000000000000000020000000000000002000000000000000000000000000000000000000000000000000020000000000000000000000000000000000080000000000000000000000000000000",
      "type": "0x2",
      "transactionHash": "0xe9decbdd0653840d70004316d7c087d21fca273f19035770029b4354cdfcde75",
      "transactionIndex": "0x17",
      "blockHash": "0xbc24324365b3f4aa2fd33f14fecdfb3e9fa7cbaae233b087a467d28d45173b1d",
      "blockNumber": "0x268116c",
      "gasUsed": "0xcfda",
      "effectiveGasPrice": "0x5b8d80",
      "blobGasUsed": "0x39d0",
      "from": "0xca60c8ef6934f8a97c6a503c4e3a46e87f5b08bd",
      "to": "0xd14135bcdfe39097122830e1f989cc6e11074b96",
      "contractAddress": null,
      "daFootprintGasScalar": "0x94",
      "l1BaseFeeScalar": "0x44d",
      "l1BlobBaseFee": "0x4",
      "l1BlobBaseFeeScalar": "0xa118b",
      "l1Fee": "0x181",
      "l1GasPrice": "0x45",
      "l1GasUsed": "0x640"
    },
    {
      "status": "0x1",
      "cumulativeGasUsed": "0x4d05fe",
      "logs": [
        {
          "address": "0xe93695ae429a2c156f216bc615e9dd8d1a9794de",
          "topics": [
            "0xddf252ad1be2c89b69c2b068fc378daa952ba7f163c4a11628f55a4df523b3ef",
            "0x0000000000000000000000000000000000000000000000000000000000000000",
            "0x0000000000000000000000005159345b9944ab14d05c18853923070d3ebf60ad"
          ],
          "data": "0x0000000000000000000000000000000000000000000000004563918244f40000",
          "blockHash": "0xbc24324365b3f4aa2fd33f14fecdfb3e9fa7cbaae233b087a467d28d45173b1d",
          "blockNumber": "0x268116c",
          "blockTimestamp": "0x69e381b8",
          "transactionHash": "0x91feae4e8912d9f39e9a54709a2e673a5043acbf2829927b956e1a9d212d186a",
          "transactionIndex": "0x18",
          "logIndex": "0x40",
          "removed": false
        }
      ],
      "logsBloom": "0x00000000000004000000000000000000000000000000000000000000000000000000000000000000000000000000000000000000000000000000000000000000000000000000000000000008000000000000000000000000000000000000000000000000020000000000000000000800000040000000000000000010000000000000000002000000000000000000000000000000000000000000000000000000000000100000000000000000000000000000000000000000000000000000000000000002000000000000000000000000000000000000000000000000000020048000000000000000000000000000000000000000000000000000000000000000",
      "type": "0x2",
      "transactionHash": "0x91feae4e8912d9f39e9a54709a2e673a5043acbf2829927b956e1a9d212d186a",
      "transactionIndex": "0x18",
      "blockHash": "0xbc24324365b3f4aa2fd33f14fecdfb3e9fa7cbaae233b087a467d28d45173b1d",
      "blockNumber": "0x268116c",
      "gasUsed": "0xcfce",
      "effectiveGasPrice": "0x5b8d80",
      "blobGasUsed": "0x39d0",
      "from": "0xca60c8ef6934f8a97c6a503c4e3a46e87f5b08bd",
      "to": "0xe93695ae429a2c156f216bc615e9dd8d1a9794de",
      "contractAddress": null,
      "daFootprintGasScalar": "0x94",
      "l1BaseFeeScalar": "0x44d",
      "l1BlobBaseFee": "0x4",
      "l1BlobBaseFeeScalar": "0xa118b",
      "l1Fee": "0x181",
      "l1GasPrice": "0x45",
      "l1GasUsed": "0x640"
    },
    {
      "status": "0x1",
      "cumulativeGasUsed": "0x4dd5cc",
      "logs": [
        {
          "address": "0xcd1ca9d5612b0eaefa6388129366226d9715161a",
          "topics": [
            "0xddf252ad1be2c89b69c2b068fc378daa952ba7f163c4a11628f55a4df523b3ef",
            "0x0000000000000000000000000000000000000000000000000000000000000000",
            "0x0000000000000000000000005159345b9944ab14d05c18853923070d3ebf60ad"
          ],
          "data": "0x000000000000000000000000000000000000000000000000016345785d8a0000",
          "blockHash": "0xbc24324365b3f4aa2fd33f14fecdfb3e9fa7cbaae233b087a467d28d45173b1d",
          "blockNumber": "0x268116c",
          "blockTimestamp": "0x69e381b8",
          "transactionHash": "0x99051e151e4d672b41a6243d34287c17218f12f6ac534e0b6d4c445168dcd25f",
          "transactionIndex": "0x19",
          "logIndex": "0x41",
          "removed": false
        }
      ],
      "logsBloom": "0x00000000000000000000000000000100000000000000000000000000000000000000000000000000000000000000000000000000000000000000000000000000000000000000000000000008000000000000000000000000000000000000100000000000020000000000000000000800000040000000000000000010000000000000000002000000000000000000000000000000000000000000000000000000000000000000000000000000000000000000000000000000000000000000000000000002000000000000000000000000000000000000000000000000000020008000000000000000000000000000000008000000000000000000000000000000",
      "type": "0x2",
      "transactionHash": "0x99051e151e4d672b41a6243d34287c17218f12f6ac534e0b6d4c445168dcd25f",
      "transactionIndex": "0x19",
      "blockHash": "0xbc24324365b3f4aa2fd33f14fecdfb3e9fa7cbaae233b087a467d28d45173b1d",
      "blockNumber": "0x268116c",
      "gasUsed": "0xcfce",
      "effectiveGasPrice": "0x5b8d80",
      "blobGasUsed": "0x39d0",
      "from": "0xca60c8ef6934f8a97c6a503c4e3a46e87f5b08bd",
      "to": "0xcd1ca9d5612b0eaefa6388129366226d9715161a",
      "contractAddress": null,
      "daFootprintGasScalar": "0x94",
      "l1BaseFeeScalar": "0x44d",
      "l1BlobBaseFee": "0x4",
      "l1BlobBaseFeeScalar": "0xa118b",
      "l1Fee": "0x181",
      "l1GasPrice": "0x45",
      "l1GasUsed": "0x640"
    },
    {
      "status": "0x1",
      "cumulativeGasUsed": "0x4ea5a6",
      "logs": [
        {
          "address": "0xd14135bcdfe39097122830e1f989cc6e11074b96",
          "topics": [
            "0xddf252ad1be2c89b69c2b068fc378daa952ba7f163c4a11628f55a4df523b3ef",
            "0x0000000000000000000000000000000000000000000000000000000000000000",
            "0x0000000000000000000000005159345b9944ab14d05c18853923070d3ebf60ad"
          ],
          "data": "0x0000000000000000000000000000000000000000000000056bc75e2d63100000",
          "blockHash": "0xbc24324365b3f4aa2fd33f14fecdfb3e9fa7cbaae233b087a467d28d45173b1d",
          "blockNumber": "0x268116c",
          "blockTimestamp": "0x69e381b8",
          "transactionHash": "0x1a2ea0e364b63585236c82a0f351d09038414a4ca93b1ec823ee4973f1162308",
          "transactionIndex": "0x1a",
          "logIndex": "0x42",
          "removed": false
        }
      ],
      "logsBloom": "0x00000000000000000000000000000000000000000000000000000000000000000000000000000000000000000000000000000000000000000000000000004000000000000000000000000008000000000000000000000000000000000000000000000000020000000000000000000800000040000000000000000010000000000000000002000000000000000200000000000000000000000000000000000000000000000000000000000000000000000000000000000000000000020000000000000002000000000000000000000000000000000000000000000000000020008000000000000000000000000000000000000000000000000000000000000000",
      "type": "0x2",
      "transactionHash": "0x1a2ea0e364b63585236c82a0f351d09038414a4ca93b1ec823ee4973f1162308",
      "transactionIndex": "0x1a",
      "blockHash": "0xbc24324365b3f4aa2fd33f14fecdfb3e9fa7cbaae233b087a467d28d45173b1d",
      "blockNumber": "0x268116c",
      "gasUsed": "0xcfda",
      "effectiveGasPrice": "0x5b8d80",
      "blobGasUsed": "0x39d0",
      "from": "0xca60c8ef6934f8a97c6a503c4e3a46e87f5b08bd",
      "to": "0xd14135bcdfe39097122830e1f989cc6e11074b96",
      "contractAddress": null,
      "daFootprintGasScalar": "0x94",
      "l1BaseFeeScalar": "0x44d",
      "l1BlobBaseFee": "0x4",
      "l1BlobBaseFeeScalar": "0xa118b",
      "l1Fee": "0x181",
      "l1GasPrice": "0x45",
      "l1GasUsed": "0x640"
    },
    {
      "status": "0x1",
      "cumulativeGasUsed": "0x4f7574",
      "logs": [
        {
          "address": "0xe93695ae429a2c156f216bc615e9dd8d1a9794de",
          "topics": [
            "0xddf252ad1be2c89b69c2b068fc378daa952ba7f163c4a11628f55a4df523b3ef",
            "0x0000000000000000000000000000000000000000000000000000000000000000",
            "0x0000000000000000000000004eed792404bbc7bc98648ebe653e38995b8e3dfb"
          ],
          "data": "0x0000000000000000000000000000000000000000000000004563918244f40000",
          "blockHash": "0xbc24324365b3f4aa2fd33f14fecdfb3e9fa7cbaae233b087a467d28d45173b1d",
          "blockNumber": "0x268116c",
          "blockTimestamp": "0x69e381b8",
          "transactionHash": "0xbad2c12afda994580081e594df6454aa032440f91767e98584a3c5b191c7f831",
          "transactionIndex": "0x1b",
          "logIndex": "0x43",
          "removed": false
        }
      ],
      "logsBloom": "0x00000000000004000000000000000000000000000000000000000000000000000000000000000000000000000000000000000000000000000000000000000000000000000000000000000008000000000000000000000000000000000000000000000000020000000000000000000800000000000000000000000010000000000000000000000000000000000000000000040000000000000000000000000000000000100000000000000000000000000000000000000000000000000000000000000002000000000000000000000020000000000000000000000000000020040000000000000000000000000000000080000000000000000000000000000000",
      "type": "0x2",
      "transactionHash": "0xbad2c12afda994580081e594df6454aa032440f91767e98584a3c5b191c7f831",
      "transactionIndex": "0x1b",
      "blockHash": "0xbc24324365b3f4aa2fd33f14fecdfb3e9fa7cbaae233b087a467d28d45173b1d",
      "blockNumber": "0x268116c",
      "gasUsed": "0xcfce",
      "effectiveGasPrice": "0x5b8d80",
      "blobGasUsed": "0x39d0",
      "from": "0xca60c8ef6934f8a97c6a503c4e3a46e87f5b08bd",
      "to": "0xe93695ae429a2c156f216bc615e9dd8d1a9794de",
      "contractAddress": null,
      "daFootprintGasScalar": "0x94",
      "l1BaseFeeScalar": "0x44d",
      "l1BlobBaseFee": "0x4",
      "l1BlobBaseFeeScalar": "0xa118b",
      "l1Fee": "0x181",
      "l1GasPrice": "0x45",
      "l1GasUsed": "0x640"
    },
    {
      "status": "0x1",
      "cumulativeGasUsed": "0x504542",
      "logs": [
        {
          "address": "0xcd1ca9d5612b0eaefa6388129366226d9715161a",
          "topics": [
            "0xddf252ad1be2c89b69c2b068fc378daa952ba7f163c4a11628f55a4df523b3ef",
            "0x0000000000000000000000000000000000000000000000000000000000000000",
            "0x0000000000000000000000004eed792404bbc7bc98648ebe653e38995b8e3dfb"
          ],
          "data": "0x000000000000000000000000000000000000000000000000016345785d8a0000",
          "blockHash": "0xbc24324365b3f4aa2fd33f14fecdfb3e9fa7cbaae233b087a467d28d45173b1d",
          "blockNumber": "0x268116c",
          "blockTimestamp": "0x69e381b8",
          "transactionHash": "0xdfeaf3289a767f2a63824b663ee7163afba7af8e4e6e2e19fdec45d44d386334",
          "transactionIndex": "0x1c",
          "logIndex": "0x44",
          "removed": false
        }
      ],
      "logsBloom": "0x00000000000000000000000000000100000000000000000000000000000000000000000000000000000000000000000000000000000000000000000000000000000000000000000000000008000000000000000000000000000000000000100000000000020000000000000000000800000000000000000000000010000000000000000000000000000000000000000000040000000000000000000000000000000000000000000000000000000000000000000000000000000000000000000000000002000000000000000000000020000000000000000000000000000020000000000000000000000000000000000088000000000000000000000000000000",
      "type": "0x2",
      "transactionHash": "0xdfeaf3289a767f2a63824b663ee7163afba7af8e4e6e2e19fdec45d44d386334",
      "transactionIndex": "0x1c",
      "blockHash": "0xbc24324365b3f4aa2fd33f14fecdfb3e9fa7cbaae233b087a467d28d45173b1d",
      "blockNumber": "0x268116c",
      "gasUsed": "0xcfce",
      "effectiveGasPrice": "0x5b8d80",
      "blobGasUsed": "0x39d0",
      "from": "0xca60c8ef6934f8a97c6a503c4e3a46e87f5b08bd",
      "to": "0xcd1ca9d5612b0eaefa6388129366226d9715161a",
      "contractAddress": null,
      "daFootprintGasScalar": "0x94",
      "l1BaseFeeScalar": "0x44d",
      "l1BlobBaseFee": "0x4",
      "l1BlobBaseFeeScalar": "0xa118b",
      "l1Fee": "0x181",
      "l1GasPrice": "0x45",
      "l1GasUsed": "0x640"
    },
    {
      "status": "0x1",
      "cumulativeGasUsed": "0x51151c",
      "logs": [
        {
          "address": "0xd14135bcdfe39097122830e1f989cc6e11074b96",
          "topics": [
            "0xddf252ad1be2c89b69c2b068fc378daa952ba7f163c4a11628f55a4df523b3ef",
            "0x0000000000000000000000000000000000000000000000000000000000000000",
            "0x0000000000000000000000004eed792404bbc7bc98648ebe653e38995b8e3dfb"
          ],
          "data": "0x0000000000000000000000000000000000000000000000056bc75e2d63100000",
          "blockHash": "0xbc24324365b3f4aa2fd33f14fecdfb3e9fa7cbaae233b087a467d28d45173b1d",
          "blockNumber": "0x268116c",
          "blockTimestamp": "0x69e381b8",
          "transactionHash": "0x477bbe329515d6855093659d6f6382e1c3347dc1405bab96c7c0fabb75b8d890",
          "transactionIndex": "0x1d",
          "logIndex": "0x45",
          "removed": false
        }
      ],
      "logsBloom": "0x00000000000000000000000000000000000000000000000000000000000000000000000000000000000000000000000000000000000000000000000000004000000000000000000000000008000000000000000000000000000000000000000000000000020000000000000000000800000000000000000000000010000000000000000000000000000000000200000000040000000000000000000000000000000000000000000000000000000000000000000000000000000000020000000000000002000000000000000000000020000000000000000000000000000020000000000000000000000000000000000080000000000000000000000000000000",
      "type": "0x2",
      "transactionHash": "0x477bbe329515d6855093659d6f6382e1c3347dc1405bab96c7c0fabb75b8d890",
      "transactionIndex": "0x1d",
      "blockHash": "0xbc24324365b3f4aa2fd33f14fecdfb3e9fa7cbaae233b087a467d28d45173b1d",
      "blockNumber": "0x268116c",
      "gasUsed": "0xcfda",
      "effectiveGasPrice": "0x5b8d80",
      "blobGasUsed": "0x39d0",
      "from": "0xca60c8ef6934f8a97c6a503c4e3a46e87f5b08bd",
      "to": "0xd14135bcdfe39097122830e1f989cc6e11074b96",
      "contractAddress": null,
      "daFootprintGasScalar": "0x94",
      "l1BaseFeeScalar": "0x44d",
      "l1BlobBaseFee": "0x4",
      "l1BlobBaseFeeScalar": "0xa118b",
      "l1Fee": "0x181",
      "l1GasPrice": "0x45",
      "l1GasUsed": "0x640"
    }
  ],
  "libraries": [],
  "pending": [],
  "returns": {},
  "timestamp": 1776517642441,
  "chain": 84532,
  "commit": "2d99860"
}